:020000040800F2
:10000000A8160020D500000829080008C10700082C
:1000100000000000000000000000000000000000E0
:100020000000000000000000000000005F0F00085A
:100030000000000000000000810A000849100008CC
:100040000501000805010008050100080501000878
:100050000501000805010008050100085D0500080C
:10006000050100080501000841030008050100081A
:100070000501000805010008050100080501000848
:100080000501000805010008A51100086D11000810
:100090000501000805010008050100080501000828
:1000A0000501000805010008050100087D1300088E
:1000B0000501000805010008050100080501000808
:1000C0000348854600F09EF80048004729290008AB
:1000D000A81600200C4880F308880C480168090E17
:1000E0000B4A914205D10B480B4901600B480C4962
:1000F00001600C4880470C480047FEE7FEE7FEE73A
:10010000FEE7FEE7FEE70000A8160020040000005E
:100110001F00000018100240010000000000014014
:100120000000000059100008C100000830B50B465F
:10013000014600202022012409E00D46D5409D42C1
:1001400005D31D469540491B254695404019154647
:10015000521E002DF1DC30BD70B50024254600286C
:1001600001DA01244042002901DA01254942FFF762
:10017000DDFFAC4200D04042002C00D0494270BDAF
:1001800003460B439B0703D009E008C9121F08C0B0
:10019000042AFAD203E00B780370401C491C521E5B
:1001A000F9D27047F0B51FB40646002082B005466C
:1001B0004024019100901BE0019922460F463046F1
:1001C00000F042F8049A059B801A994110D310461A
:1001D0001946224600F028F8361A8F410197224628
:1001E00001200021009F00F01FF838184D410090B9
:1001F0002046641E0028DFDC019B00982946324619
:1002000007B0F0BD064C0125064E05E0E36807CCBB
:100210002B430C3C98471034B442F7D3FFF754FFFC
:10022000644300088443000810B5202A04DB01461B
:10023000203A9140002010BD914020239C1A034693
:10024000E3401943904010BD10B5202A04DB084656
:10025000203AD040002110BD0B46D340D04020248E
:10026000A21A91400843194610BD70B58C18057844
:10027000401C6B075B0F01D10378401C2A1106D18B
:100280000278401C03E006780E70401C491C5B1E7F
:10029000F9D12B0705D40023521E0DD40B70491C35
:1002A000FAE70378401CCB1A921C03E01D780D700E
:1002B000491C5B1C521EF9D5A142D8D3002070BD49
:1002C0000020C043054908600548486100200871C6
:1002D000401E086101208860704700000030024025
:1002E000B71DC10401460020054A90681823024644
:1002F0009A43104602460A431046014A90607047EE
:10030000003002400149086170470000003002409F
:1003100001494861704700000030024010B50121DA
:10032000402000F0C1FBFFF7CBFF0020FFF7EAFF02
:100330001020FFF7D7FF0720FFF7EAFF10BD0000EE
:1003400010B5202000F032F800280CD0202000F05A
:100350000FF8102000F00CF80021034800F018F806
:1003600000200249087010BD1C000240C800002097
:10037000012109070140002902D00349486001E03A
:10038000024948607047000000040240000002403B
:10039000002904D0026801231A43026003E00268C6
:1003A000014B1A4002607047FEFF0000014600202A
:1003B000002201231B070B40002B02D0064B1A68BA
:1003C00001E0064B1A6813460B40002B01D00120B8
:1003D00000E00020704700000004024000000240DE
:1003E000002A03D003680B43036002E003688B43D9
:1003F0000360704710B5002202680D4B1A400C6A6A
:100400008B6823430C6923434C6923438C69234342
:10041000CC6923434C6A23438C6A23431A4302600A
:10042000CB6843600B6883604B68C36010BD0000FD
:100430000F80FFFF10B50B4A904200D100E000BFD3
:10044000A82212580B0F9C000F23A3409A43A82305
:100450001A50A82212580B011B091A43A8231A503C
:1004600010BD00000000024000B58DB0012108461B
:1004700000F01AFB102005900020089009900690CB
:100480008020079000200A900C90114803901020C3
:10049000049040020B900F48029002A90E48FFF70B
:1004A000A9FF0E490C481C38FFF7C4FF01220221A6
:1004B0000948FFF795FF0A21684601710321417140
:1004C0000121817101A800F067FA0DB000BD0000A4
:1004D000A0100020283801401C00024080000010BD
:1004E00010B5012007490870202007490862012241
:1004F0008021064800F0F2FF00BF02480078002883
:10050000FBD110BDC80000200000024000380140AF
:1005100001B581B00022009200200F4909688AB21B
:10052000009215E00C4909686A461288914206D388
:10053000094909686A461288891A88B208E069463A
:1005400009880022D243511A034A1268891888B2D6
:1005500001998842E6D30CBD4C01002010B5012062
:10056000000300F063F800280FD000BF24480068A3
:100570008047012109030920C00600F013F9012872
:10058000F4D00120000300F04BF80120C00200F07D
:100590004DF8002832D00120C00200F041F819487F
:1005A0000078002827D100BF17480078322817DCD0
:1005B000164909784901164A881800F09AF9002866
:1005C00011D111480078401C0F49087032210F48A2
:1005D0000078401CFFF7C0FDC8B20C49087002E06B
:1005E0000C4800F086F90121C9020B4800F0DAF846
:1005F0000028D9D002E001200849087010BD000091
:100600000400002028000020080000200A0000202C
:100610006C030020710F0020000400482900002016
:100620000149486170470000000401400146002074
:10063000044A52690A40002A01D0012000E000204B
:100640007047000000040140002120498279002AFF
:1006500035D00A46126803689A430B461A600A4668
:10066000526803689A430B465A60027951180A6827
:1006700003681A430A60154A926803689A43134B49
:100680009A601A46D26803689A43104BDA6042793E
:10069000102A0CD11A46926803681A430B4B9A60D1
:1006A0001A46D26803681A43084BDA600DE007491E
:1006B000427951180A6803681A430A6005E0027912
:1006C00051180A6803689A430A60704700040140A1
:1006D000F0B50A4600210023002400BF3DE00125BB
:1006E0008D402B4615681D402C469C4234D115790F
:1006F000012D02D01579022D16D185684F000326F1
:10070000BE40B543856055794E00B5408668354397
:100710008560858801268E40B543858085889679D9
:100720008E40B6B23543858005684F000326BE4033
:10073000B543056015794E00B54006683543056040
:10074000C5684F000326BE40B543C560D5794E004D
:10075000B540C6683543C560491C1029BFD3F0BDFC
:10076000F0B5002300244D07EE0E1546B5402B468C
:10077000CD10AE0005462035AD594E07F70E0F26B9
:10078000BE40B543CE10B60007462037BD51CD1050
:10079000AE003D46AD591D432C46CD10AD003E4642
:1007A0007451F0BD02460020138A0B40002B01D08B
:1007B000012000E00020704701857047816170478B
:1007C00000BFFEE71CB50121C80400F06DF903204D
:1007D000C00200900121684601710021817103214E
:1007E00041710121C17169460D48FFF771FF012177
:1007F000080500F059F904200090012168460171B4
:1008000000218171032141710121C17169460548AF
:10081000FFF75EFF04210348FFF7CEFF1CBD000079
:1008200000080048000C0048704700001FB515A1E3
:1008300003C903910290002000900190052202A9B3
:10084000302000F075F805226946102000F01EF8EF
:1008500068460078112812D16846407822280ED1C7
:100860006846807833280AD16846C078442806D183
:1008700068460079552802D1002004B010BD01203F
:10088000FBE700001122334455000000F8B507468D
:100890000D46164610210920C006FFF78DFF384689
:1008A00000F02EFB0090002405E0FF2000F028FB64
:1008B0002855601CC4B2B442F7DB10210920C006E1
:1008C000FFF77CFF0098F8BD70B5044610210920A1
:1008D000C006FFF771FF204600F012FBFF2000F07A
:1008E0000FFB054610210920C006FFF767FF2846C9
:1008F00070BD70B504460720FFF7E6FF05461720D8
:10090000FFF7E2FF06462946272000F02FF8402097
:10091000284000280AD0202221466120FFF7B6FF98
:10092000FF21E22000F022F8002070BD0120FCE74A
:10093000F8B507460C46154610210920C006FFF7FA
:100940003BFF384600F0DCFA0090002605E02078F6
:10095000641C00F0D5FA701CC6B2AE42F7DB102161
:100960000920C006FFF72AFF0098F8BD70B50546BC
:100970000C4610210920C006FFF71EFF284600F094
:10098000BFFA0646204600F0BBFA10210920C00637
:10099000FFF714FF304670BD00218278002A27D06F
:1009A000184A03231B02D21803789B109B00D158CE
:1009B00002789207D30EFF229A400B4693431946C2
:1009C00042789207120E03789B07DB0E9A40114380
:1009D0000C4A03231B02D21803789B109B00D150B2
:1009E0000278D306DB0E01229A40064B1A6007E01C
:1009F0000278D306DB0E01229A40024B80331A6044
:100A00007047000000E100E010B5002819DA1A4A2A
:100A100003071B0F083B9B089B00D2588307DC0E83
:100A2000FF23A3409A438B071B0E8407E40EA340C9
:100A30001A43114B0407240F083CA408A4001A51C0
:100A400018E00E4A03231B02D21883089B00D258D9
:100A50008307DC0EFF23A3409A438B071B0E8407FA
:100A6000E40EA3401A43054B032424021B198408F7
:100A7000A4001A5110BD00001CED00E000E100E0F0
:100A80007047000010B50348016803A000F008FE9D
:100A900010BD000050010020616E63686F72206E0F
:100AA000756D3D25640D0A00002905D0054A52697F
:100AB0000243044B5A6104E0024A52698243014BEB
:100AC0005A61704700100240002905D0054AD269DA
:100AD0000243044BDA6104E0024AD2698243014BCB
:100AE000DA61704700100240002905D0054A92697A
:100AF0000243044B9A6104E0024A92698243014B2B
:100B00009A61704700100240FEB504460025002699
:100B100000200290019000900027864840680C2138
:100B200008400546002D06D0042D07D0082D08D01A
:100B30000C2D2CD128E0804820602BE07E482060DE
:100B400028E07C4840680F2189040840064679481F
:100B500040680321C90308400290B00C861C02982B
:100B6000002803D17548374647430BE07148C06AF7
:100B70000007000F401C01906F480199FFF7D6FA5B
:100B800070430746276005E06D48206002E06A4830
:100B9000206000BF00BF67484068F021084005465C
:100BA0002D096848405D009020680099C840606049
:100BB0006048406807210902084005462D0A61483F
:100BC000405D009061680098C140A1605948006B89
:100BD000FF2101310840884202D05B48E0600DE00F
:100BE00054484068012189030840884203D0A06826
:100BF0004008E06002E0A0688008E0604D48006BBB
:100C000040210840402802D05048206102E00120E5
:100C1000C00320614748006B10210840102802D013
:100C20004548606101E0206860614248006B8007D0
:100C3000800F002802D1A068A06119E03D48006B38
:100C40008007800F012802D12068A06110E0394898
:100C5000006B8007800F022802D18003A06107E0AB
:100C60003448006B8007800F032801D13248A0610F
:100C70003048006B032109040840002802D1A06815
:100C8000E06120E02B48006B0321090408400121AA
:100C90000904884202D12068E06114E02548006B15
:100CA00003210904084001214904884202D180102F
:100CB000E06108E01F48006B0321090408408842F6
:100CC00001D11D48E0611B48006B032189040840E5
:100CD000002802D1A068206220E01648006B0321A2
:100CE0008904084001218904884202D120682062D9
:100CF00014E01048006B0321890408400121C90455
:100D0000884202D10011206208E00A48006B0321EA
:100D100089040840884201D1074820620548006BD9
:100D200080210840802802D00548606200E06762A8
:100D3000FEBD00000010024000127A0000093D00D4
:100D4000006CDC0254010020809FD500128000005E
:100D5000002904D0028840231A43028003E002885D
:100D6000014B1A4002807047BFFF0000024600207E
:100D700013890B40002B01D0012000E000207047B8
:100D800010B500220288C1239B011A400B88CC8930
:100D90002343CC8823430C8923434C8923438C89E8
:100DA00023431A4302808288084B1A408B881A43D7
:100DB00082800B8A03820288054B1A404B881A43B3
:100DC0000280838B034C2340838310BDFFF000001F
:100DD000FBFF0000FFF7000000B587B001210720EE
:100DE0004004FFF761FE01210803FFF77DFE20208C
:100DF0000590022168460176012141760021817625
:100E00000121C17605A90920C006FFF761FC402039
:100E1000059005A90920C006FFF75AFC802005901F
:100E200005A90920C006FFF753FC0022052109206F
:100E3000C006FFF795FC002206210920C006FFF737
:100E40008FFC002207210920C006FFF789FC102033
:100E50000590012168460176002181760121C17645
:100E6000417605A90920C006FFF732FC082005904D
:100E7000012168460176002181760121C176417603
:100E800005A90920C006FFF723FC0120C002059038
:100E90000021684601760121C176417605A91648F0
:100EA000FFF716FC10210920C006FFF787FC002180
:100EB00068460180FF2105314180072109028180B8
:100EC0000021C180018101214902418110218181DC
:100ED0000021C1810721018269460848FFF750FFC0
:100EE00001210903054800F02BF801210348FFF711
:100EF0002FFF07B000BD0000000400480030014093
:100F000010B5044600BF02210948FFF72FFF002853
:100F1000F9D02146064800F01DF800BF0121044821
:100F2000FFF724FF0028F9D0014800F003F810BDB6
:100F300000300140014600220A460C32107870470A
:100F40008288034B1A40828082880A4382807047DD
:100F5000FFEF0000002202460C321170704770470C
:100F600030B500228B071C0F0F23A3401A460B4BF2
:100F70008C10A4001B599343084C8D10AD00635195
:100F800023468C10A4001B598C07250F0446AC4047
:100F90002343024C8D10AD00635130BD0800014069
:100FA00011201D4908601D4840681C4948600846DA
:100FB00040684860084640687F21C9038843174954
:100FC0004860084640680521C90408431349486041
:100FD000084600680121090608431049086000BF5F
:100FE0000E4800680121490608400028F8D00B4847
:100FF000406880088000094948600846406802212E
:1010000008430649486000BF044840680C21084076
:101010000828F9D17047000000200240001002406B
:1010200070470000042806D10649096904221143CB
:10103000044A116105E00349096904229143014A08
:101040001161704700E000E002480068401C01495F
:10105000086070474C01002010B51B480068012152
:10106000084319490860084640681849084016496D
:101070004860084600681649084013490860084659
:1010800000680121890488430F49086008464068C8
:101090003F21090488430C4948600846C06A00099A
:1010A0000001C8620846006BFF215431884306499D
:1010B00008630846406B4008400048630020886091
:1010C000FFF76EFF10BD0000001002400CB8FFF8E3
:1010D000FFFFF6FE10B58AB06846FFF715FD13490D
:1010E0000098FFF723F80446214611A000F0D8FA33
:1010F0000E490198FFF71AF80446214611A000F0A6
:10110000CFFA0A490198FFF711F8044621460DA0CD
:1011100000F0C6FA05490298FFF708F80446214690
:101120000DA000F0BDFA0AB010BD000040420F0053
:10113000535953434C4B202020203D2025644D48DB
:101140007A0D0A0048434C4B2841484229203D2053
:1011500025644D487A0D0A0050434C4B28415042BB
:1011600029203D2025644D487A0D0A0010B5012143
:101170000A4800F07EF801280AD109490869804729
:101180000021064800F094F86421044800F08EF82D
:101190000121024800F04FF810BD0000002000407F
:1011A000F401002010B5002401211D4800F061F871
:1011B000012830D1002C03D004201A49886103E0B3
:1011C0000120800417498861002C01D1012000E032
:1011D0000020044600F044FF13480078134988704B
:1011E00011480078401C1049087041200F490870D0
:1011F00088204870A0204872FF2048718871002222
:101200000C2001F002FB012200210C2001F012FB56
:10121000022001F049FA0121014800F00CF810BD4C
:1012200000140040000C0048C90000202A000020E3
:10123000CA4302827047CA4302827047002904D021
:10124000028801231A43028003E00288014B1A40FE
:1012500002807047FEFF00000146486A7047024660
:101260000020138A0B40002B01D0012000E0002059
:10127000704730B50246002000230024158A0D4037
:101280002B4695890D402C46002B03D0002C01D015
:10129000012000E0002030BD002A03D083890B43E9
:1012A000838102E083898B4383817047C1627047E9
:1012B0004162704700220288154B984206D00123F4
:1012C0009B07984202D0134B984203D1124B1A400D
:1012D0004B881A43114B984203D0114B1A400B898B
:1012E0001A4302804B68C3620B880385084B9842FF
:1012F00008D00C4B984205D00B4B984202D00B4BB8
:10130000984201D18B7A03860123838270470000C3
:10131000002C0140000400408FFF0000001000403E
:10132000FFFC000000400140004401400048014033
:101330007FB504460D4601210802FFF7C5FB029464
:101340006846858000218181C18001A90A48FFF794
:10135000B1FF012241210848FFF79EFF1321684693
:1013600001700221417001218170FFF715FB0121FD
:101370000148FFF763FF7FBD0020004010B5204902
:10138000204800F0BFF8002839D01E4800F07EF950
:10139000C4B21D4800880121C903084000282ED18D
:1013A000194800884910084000280DD00A2C03D0A5
:1013B00000201549088022E0134800880121C90354
:1013C0000843114908801AE00D2C07D10E48008807
:1013D0000121890308430C49088010E00A4800886D
:1013E0008004800C09490C5407480088401C0649B9
:1013F0000880084600887F2801DD0020088010BD95
:10140000050105000038014000000020EC0200202A
:1014100001627047002904D0026801231A43026068
:1014200003E00268520852000260704700B589B0BC
:1014300001214804FFF738FB01218803FFF754FB23
:1014400001220921C806FFF78BF901220A21092090
:10145000C006FFF785F9012040020190022168468D
:10146000017201214172002181720121C17201A921
:101470000920C006FFF72CF901208002019001A984
:101480000920C006FFF724F94B20C001039000207B
:1014900004900590069008900C20079003A90D4831
:1014A00000F078F80C490B48FFF7B2FF01220A4917
:1014B000084800F04EF801210648FFF7ABFF1B215A
:1014C00068460170012141708170FFF765FA09B02B
:1014D00000BD00000038014005010500002A03D0CE
:1014E00083680B43836002E083688B4383607047AB
:1014F00002460020D3690B40002B01D0012000E000
:101500000020704770B502460B46002400210025DC
:1015100000201E04350ED9B201268E403146012D21
:1015200002D11668314006E0022D02D156683140E2
:1015300001E0966831401C0C0126A6403446D6696D
:101540003440002903D0002C01D0012000E000200D
:1015500070BDF8B503460024002600960025002043
:1015600018460E04340ECEB200960127009EB740F6
:101570003D46022C01D1001D02E0032C00D10830B1
:10158000002A03D006682E43066002E00668AE43D8
:101590000660F8BDF0B58BB004460D46002700206C
:1015A0000A900026206840084000206066680321F9
:1015B0000903304688430646A868064366602668E5
:1015C0002D480640E96868680843296908430643CE
:1015D0002660A668032109023046884306466869EA
:1015E0000643A6606846FFF78FFA2448844202D17A
:1015F00006980A900DE02248844202D107980A908A
:1016000007E02048844202D108980A9001E002983D
:101610000A9020680121C903084000280CD02968DD
:101620000A9A5000FEF782FD074629680A9A500080
:10163000FEF77CFD0E4609E029680A98FEF776FD64
:10164000074629680A98FEF771FD0E46286840088B
:10165000B04200D87F1C20680121C903084000283F
:1016600006D03807460F384607490840304307463A
:10167000A7810BB0F0BD0000F3E9FFFF0038014087
:101680000044004000480040F0FF00000146888C04
:10169000C005C00D7047CA05D20D0285704770475E
:1016A0000FB410B503A9044B044A029800F0FAF8ED
:1016B00010BC08BC04B018475D280008E8020020F0
:1016C00030B47446641E2578641CAB4204D3635D59
:1016D0005B00E31830BC18471D46F8E702E008C875
:1016E000121F08C1002AFAD170477047002001E09C
:1016F00001C1121F002AFBD1704710B50022022140
:101700002C2001F046F8022211462C2001F041F86D
:1017100010BD000010B504466D2209492E2001F0CD
:1017200038F8002C05D0074A07492E2001F00FF8A1
:1017300004E0064A04492E2001F009F810BD00001B
:101740000608000007060000061800000716000043
:1017500010B5002000F006F800220421362000F029
:10176000F6FF10BD38B504466B4602220021362034
:1017700000F012FE2300FFF7A3FF0F12091B5B5BB3
:101780005B5B24325B5B3E454C555B000021684649
:1017900001704078FE2108406946487049E069467A
:1017A0000878FC210840012108436946087040E0A0
:1017B00069460878FC210840022108436946087000
:1017C00037E068460078B321084048210143684665
:1017D00001704078802108436946487029E06846D6
:1017E0000178B32001406846017040784106490EF7
:1017F000684641701DE06946487802210843694601
:10180000487016E069464878FD21084069464870EE
:101810000FE069460878CF21084020210843694637
:10182000087006E00121684601700321417000E064
:1018300000BF00BF6B4601220021362000F0B3FF3D
:1018400000AB013301221146362000F0ACFF38BD59
:1018500010B50E20FFF786FF0122D20306212D20AE
:1018600000F075FF012000F057FA0120FFF77AFF22
:1018700010BD70B50446A2B204212D2000F067FF10
:10188000032206212D2000F084FF002206212D20B6
:1018900000F07FFF0A212D2000F057FD0546284665
:1018A00070BD0000FFB591B00F460546002606E06A
:1018B00025280AD0149A139990476D1C761C287815
:1018C0000028F5D1304615B0F0BD00240094012168
:1018D000F34A029400E004436D1C2B780846203B39
:1018E00098401042F7D128782A280ED00221287873
:1018F0000246303A092A15D8009A0A235A43303A48
:1019000080180C436D1C0090F1E701CF0090002877
:1019100005DA012040030443009840420090022071
:1019200004436D1C28782E2815D1042004436878C0
:101930006D1C2A280AD101CF6D1C02900BE0029980
:101940000A225143303940186D1C02902878014614
:1019500030390929F3D928786C2810D006DC4C28B6
:101960001AD068280ED06A2817D104E0742813D042
:101970007A2812D110E00120400504430CE0012137
:10198000090501E0032109050C436978814203D16F
:101990000120000524186D1C6D1C287803906E280A
:1019A0001ED00CDC632831D004DC00288AD05828F3
:1019B00011D1B2E064287BD069280CD178E073287B
:1019C0002DD004DC6F2870D0702804D1A7E07528D2
:1019D0006CD078286BD0149A13999047761C62E0EB
:1019E0006002400F022807D003280AD00428386874
:1019F0000AD006603F1D56E03868F1170660416066
:101A0000F8E738680680F5E70670F3E73878694646
:101A100008740020487404A80390012003E038688B
:101A200003900020C0433F1D61070FD5002101E056
:101A30000199491C029A0191914213DA8142F7DB24
:101A4000019A0399895C0029F2D10BE0002101E0A1
:101A50000199491C01918142FADB019A0399895C41
:101A60000029F5D101990098139A401A0090214657
:101A7000149B00F03BF901998019461807E0039880
:101A800003990078491C0391149A1399904701987F
:101A9000401E0190401CF2D12146149B139A0098DD
:101AA00000F014F986196D1C09E741E033E034E0D9
:101AB0000A200021049005916002410F022905D0FF
:101AC00001CFC2179446032905D007E0FF1DFF0888
:101AD000FF0003CF06E000B2C2179446042902D1EA
:101AE00040B2C1178C4600226146944506DA0A4688
:101AF0000021404291418C462D2102E0210504D570
:101B00002B216A461176012103E0E10701D0202153
:101B1000F7E7019154E00A200BE0102009E01020C3
:101B2000049000210420044308200591029003E062
:101B300008200021059104906002410F022905D080
:101B400001CF00229446032906D006E0FF1DFF08BE
:101B5000FF0003CF8C4603E080B2042900D1C0B25D
:101B60000021019121072BD50399702906D0049AF1
:101B70001021059B4A401A4305D00EE040216A46D9
:101B80001176012108E06146014306D030216A4602
:101B900011760399517602210191049A0821059B3F
:101BA0004A401A430CD16146014301D1610707D570
:101BB00030216A461176012101910299491E029154
:101BC0000399582904D037A103910FA90F910DE073
:101BD00039A1F9E76146059B049AFEF7E3FA039BF6
:101BE0008C469B5C0F9A521E0F9213706146014304
:101BF000F0D10F9807A9081A20300390600704D588
:101C0000012000048443029801E00120029003991E
:101C1000884201DD401A00E000204118029001983E
:101C200009180098401A0090E00306D42146149B3E
:101C3000139A009800F05AF886190020049008E0E2
:101C400006A9085C149A139990470498401C761CC6
:101C5000049001998842F3DBE0030CD52146149BE4
:101C6000139A009800F042F8861904E0149A302084
:101C700013999047761C0299481E02900029F5DCC2
:101C800008E00F980F990078491C0F91149A139946
:101C90009047761C0399481E03900029F1DCFBE66F
:101CA0000928010030313233343536373839616232
:101CB00063646566000000003031323334353637F6
:101CC000383941424344454600000000F8B5044617
:101CD00000251E461746880404D405E03946202016
:101CE000B0476D1C641EF9D52846F8BDFFB5044603
:101CF000002581B01E46C80301D5302700E020270B
:101D0000880404D505E038460399B0476D1C641E6D
:101D1000F9D5284605B0F0BD10B504462046FEF7BB
:101D2000F7FB10BD002800D062B6704701200028E4
:101D300000D072B67047000010B57D2189011048AF
:101D40000068FEF7F3F90446601E0E49884201D987
:101D500001200CE0601E0C4948610021481EFEF77E
:101D600053FE0020084988610720086100200028F0
:101D700001D000BFFEE70420C043FFF753F910BDB8
:101D800064010020FFFFFF0000E000E000B585B027
:101D900001210846FEF7A8FE01214804FEF784FE53
:101DA0000120000303900021684601740221C174E0
:101DB0000321417403A90920C006FEF789FC0C2108
:101DC0000020FFF7CDF801200003019000216846B4
:101DD0000172082141720121817201A8FEF734FCD1
:101DE000072168460170012141708170FEF7D4FD22
:101DF00005B000BDFEB504462578607940007E49F7
:101E0000085A01906078401EC6B2042D01D0072DFB
:101E100001D1012000E000200090E07900280AD1E3
:101E20007648406901218905084374494861019851
:101E3000C010019006E0714840690121890588437E
:101E40006E494861207A6D4908720846406903214D
:101E5000090488436949486108464069217A0904B0
:101E600003221204114008436449486108460021D6
:101E70004269042000F07AFC61492E20019A00F0AA
:101E800066FC3046FFF746FC5E48405D80005E49D8
:101E90000A5807212B2000F069FC5A48405D5B4935
:101EA0000A5C0B212B2000F074FC594900980A5C55
:101EB0000B21282000F06DFC5248405D8000554900
:101EC0000A580C21282000F051FCE079800052498A
:101ED0004018A1794900425A0221272000F037FC1E
:101EE00070004E490A5A0421272000F030FCE079A6
:101EF000002805D164220621272000F028FC17E0E5
:101F0000A07804280AD110220621272000F01FFC07
:101F100010222621272000F03CFC09E02022062187
:101F2000272000F014FC28222621272000F031FC75
:101F300030013B494018E1788900425808212720A8
:101F400000F014FC6089002801D136486081628964
:101F50002021272000F0FBFB33480C2102682320BE
:101F600000F004FC71003048001D425A0421232077
:101F700000F0EDFBA079002806D0E0792B490A5C3F
:101F80000021212000F005FC2807000F2901F02284
:101F900011400843617889040322920411400843E8
:101FA000A17949040122520411400843217989058D
:101FB0001F229205114008436179C906C90EC9065E
:101FC000084307463A4600211F2000F0CFFBA078C7
:101FD000617808430004E179490308430749C86070
:101FE00008460021C268082000F0C0FB4222002100
:101FF0000D2000F0CEFBFEBDC44100087012002091
:102000000428000048410008684100088041000899
:10201000864100085041000894410008A041000892
:10202000A4410008411000008841000890410008C8
:1020300010B50446224603211A2000F0AAFB0748E7
:102040004069012189070843044948610846002185
:102050004269042000F08AFB10BD000070120020CD
:1020600070B500210E2000F070F90546FFF75EFE06
:102070000446002211460E2000F078FB4022002189
:102080000D2000F086FB094A00210F2000F06EFBB6
:1020900000F04AFB2A4600210E2000F067FB204694
:1020A000FFF740FE00200249887670BDF8FF272424
:1020B00070120020F8B504460025002700203A4998
:1020C0004874887608838862C8620863486300F0B1
:1020D0005DF93649884201D08817F8BD00F0C2FA90
:1020E0000020FFF73FFB04220021242000F051FBD9
:1020F0001E20FFF7BEFB85B228122B494872042030
:10210000FFF7B7FB0746F8B200280BD002221221D6
:102110002D2000F03EFB2448008B012109030843D9
:10212000214908830620FFF7A4FB1F490860072008
:10213000FFF79FFB1C494860E806C00E087408467C
:10214000007C002801D1102008741749087C00F099
:102150007BFAE007C00F002809D0FFF779FB12488F
:10216000008B0121C90208430F4908830CE00521B7
:10217000362000F0D7F806460D48064032460521C5
:10218000362000F0E4FA00BF0120FFF7EBFA00224E
:102190000A212C2000F0FDFA0021042000F0D5F8DF
:1021A00001494861002098E7701200203001CADE22
:1021B000FFFD000070B500210F2000F0C6F8574960
:1021C0000446C861012080032040002855D06F22BA
:1021D000120200210F2000F0C9FA00214F481C30E4
:1021E0000172102000F09EF80546AE05B60D4B4872
:1021F000007A002801D17606760E48480684012030
:10220000C0032840002807D044481C30007A012130
:10221000084342491C310872404B223302220021FC
:10222000112000F0B9F808202040002813D03B48C6
:102230001C3080792021084000280CD10822002180
:102240000F2000F093FA3548C069082188433349CC
:10225000C861002088763148C06A002803D02F4822
:10226000C16A1C3088472D48407C002804D00122D8
:1022700003210D2000F08DFA00BF802020400028AF
:1022800018D0F82200210F2000F070FA082020401A
:10229000002807D02148807E002803D0FFF7E0FE09
:1022A00000F0F1F81D48806A002803D01B48816ABD
:1022B0001C308847112040042040002814D00122FF
:1022C000520400210F2000F051FA002013498876B3
:1022D000FFF7C6FE00F0D7F81048006B002803D0C7
:1022E0000E48016B1C3088470D482040002813D051
:1022F0000B4A00210F2000F039FA002007498876A8
:10230000FFF7AEFE00F0BFF80448406B002803D092
:102310000248416B1C30884770BD000070120020DD
:1023200000900524F8B504460D460026A9B2A0B2D7
:102330006B46022200F030F8684640780102684699
:102340000078081886B23046F8BDF8B505460E4646
:102350000027B1B2A8B26B46042200F01DF8032496
:1023600004E038026946095D4718641E002CF8DA5B
:102370003846F8BD38B504460D46A9B2A0B26B4642
:10238000012200F009F86846007838BD10B5002138
:102390000846FFF7DAFF10BDFFB581B006460C46D0
:1023A00017460025002C04D129466D1C684646546A
:1023B0001AE040203043C2B229466D1C68464254A0
:1023C0007F2C04DC28466D1C69460C540CE0E0B2FE
:1023D0008021084329466D1C6A4650546004020E51
:1023E00028466D1C69460A54A8B23A466946049BC1
:1023F00000F0B2FB05B0F0BD70B504460D461646C0
:1024000023462A4631461120FFF7C6FF70BD10B59E
:1024100004462346052200211520FFF7BDFF10BD0D
:1024200070B5044604202040002801D100F07CF95A
:10243000FF250135E007C00F002801D068000543E3
:102440002A4600210D2000F082F9E007C00F002885
:1024500017D003210F20FFF78DFF064608203040DC
:1024600000280ED0FFF7FCFD02202040002805D1F7
:10247000FF22013200210D2000F069F90020C04345
:1024800070BD0020FCE710B5E0220321362000F0EB
:1024900080F9F0220321362000F07BF910BD10B541
:1024A000044622460021032000F051F910BD00002F
:1024B00010B5034CA062E1622263636310BD0000AB
:1024C0007012002010B50446234608220021012086
:1024D00000F069F910BDF8B504460E46FFF726FC7A
:1024E000074600210E20FFF730FF0546002E03D0DF
:1024F00028462043054602E02846A04305462A46D2
:1025000000210E2000F032F93846FFF70BFCF8BD31
:1025100070B50546E807C00F00283BD000212620F3
:10252000FFF713FF04460F21890220468843044623
:1025300005208002044322460021262000F016F9DF
:1025400000213620FFF701FF0446212080040443C8
:1025500022460021362000F009F9FF241134022020
:102560002840002802D00F200004044322462821DE
:10257000362000F0FBF802202840002819D00F2157
:10258000090420468843044622462821362000F0CC
:10259000EDF80EE000212620FFF7D7FE04460F21BC
:1025A000890220468843044622460021262000F066
:1025B000DDF870BD10B5044622460221032000F06C
:1025C000C6F810BD10B50446224602492E2000F080
:1025D000BEF810BD0418000070B5044603210420A5
:1025E000FFF7C8FE0546002C13DD224600210C2013
:1025F00000F0ADF8102005430E484069012109079D
:1026000008430C4948612A460321042000F0C1F820
:102610000EE0102128468843054606484069090611
:102620008843044948612A460321042000F0B1F898
:1026300070BD00007012002010B504462246002133
:10264000182000F084F810BD70B50446E006C00EF6
:102650006021084305462A460E212B2000F099F8F8
:1026600070BD000010B5FFF773F8002211462C2052
:1026700000F06DF8002206212C2000F08AF8FFF708
:102680003CF800220321362000F083F80120FFF7F8
:1026900043FBF0220321362000F07BF800200149A3
:1026A000887610BD70120020F8B50446002600257B
:1026B000002702202040002808D080252A4600213B
:1026C0000D2000F066F8012016498876E007C00F5B
:1026D00000281DD0062005432A4600210D2000F0C9
:1026E00058F803210F20FFF71DFE07468120C00088
:1026F0003840002801D1002611E040252A4600215B
:102700000D2000F046F8002006498876461E06E0B7
:10271000022005432A4600210D2000F03AF83046F9
:10272000F8BD00007012002010B503210F20FFF744
:1027300021FE04468020204040212140490088425B
:1027400004D0012203210D2000F023F810BDF8B5BC
:1027500005460E4614466846047021124170B1B217
:10276000A8B26B46022200F01EF8F8BDF8B5064686
:102770000F461446002503E069464C55240A6D1C9B
:10278000042DF9DBB9B2B0B26B46042200F00BF8AD
:10279000F8BD37B504460D46A9B2A0B202AB01227E
:1027A00000F001F83EBDFFB581B006460C46174665
:1027B0000025002C07D180203043C2B228466D1C72
:1027C00069460A5419E0C0203043C2B228466D1C45
:1027D00069460A547F2C03DC28466D1C0C540CE01F
:1027E000E0B28021084329466D1C6A4650546004BB
:1027F000020E28466D1C69460A54A8B23A4669463C
:10280000049B01F05DFC05B0F0BD70B504460E46BA
:102810001546281901218902884207DCA21E334689
:1028200029460920FFF7BFFF002070BD0020C043EC
:10283000FBE70000F8B504460D4616460648C0689A
:102840002043A9050843F103084307463A460021FF
:102850000820FFF78BFFF8BD7012002070B504460A
:102860000D4600BF40210948FEF742FE0028F9D07E
:10287000E1B20648FEF70FFF00BF40210348FEF714
:1028800037FE0028F9D0204670BD00000038014016
:102890007CB5044600200190012504266B46324693
:1028A00001A9284600F058F96846015D01A0FEF72D
:1028B000F7FE7CBD25640D0A0000000070B50546DA
:1028C00000210F20FFF741FD0446214601A0FEF73D
:1028D000E7FE70BD3078256C780D0A007CB50021CC
:1028E0000C460D466846FFF792FD042608E0220ECE
:1028F00028021043240205466846805D0443761E84
:10290000002EF4DA204629467CBD000010B50348AD
:10291000016803A0FEF7C4FE10BD00004C010020BA
:1029200074696D653D256400FDF7F8FCFDF74AFF0D
:10293000FFF702FAFEF77AFD4048416830208847E9
:1029400000F01AFA00F04EF9FEF746FA00F0B8F877
:10295000FDF76CFF002803D039A0FEF7A1FE02E0CE
:102960003DA0FEF79DFE0120FFF7A4FB401C0028C0
:1029700004D13EA0FEF794FE00BFFEE7FFF706FA83
:10298000FFF7D4F9044600F0CFF93C48FFF732FADC
:102990000120FFF7BDFD3A4800F0CAF82046FFF7D6
:1029A000C1F93848FFF70EFE3648FFF745FE364AB4
:1029B00000210F20FFF7DAFE01213448FFF78BFDDD
:1029C000334B344A34493548FFF772FD34480088A8
:1029D000FFF7F0FD3348FFF775FD33480088FFF738
:1029E0005EFD0520FFF724FB0020FFF7F5FDFDF756
:1029F0003BFD0020FFF714FD1FE01DE0FFF730FB5B
:102A000000222A491220FFF700FF0022114612205F
:102A1000FFF710FF0220FFF747FE00BF24480078B1
:102A20000028FBD000202249087022A0FEF738FEC3
:102A3000FF20F530FDF76CFDE0E7DEE7F401002054
:102A40000D0A2032344C3031206E6F742065786965
:102A500073740D0A000000000D0A2032344C30312E
:102A600020636865636B206F6B0D0A00494E495403
:102A7000204641494C45440D0A000000B0000020AA
:102A8000B52100086F4000000040800080D0232462
:102A9000392C00081D2D0008452C00080D2F0008BA
:102AA000BC000020BE000020C6000020CA0000209C
:102AB0002300002073656E64207265730D0A0000A8
:102AC00000B585B001210846FEF70EF80121880403
:102AD000FDF7EAFF0B210120FEF742FA0120C002B8
:102AE00003900021684601740121C17403A90F48B5
:102AF000FDF7EEFD0B210120FEF732FA0120C002A6
:102B000001900021684601720C21417201218172FD
:102B100001A8FDF799FD0721684601700321417066
:102B200001218170FDF738FF05B000BD00040048A9
:102B300001490860704700000400002070B5054698
:102B4000FFF724FC0446214601A0FEF7A9FD70BD55
:102B5000256C780D0A000000FFB581B006460F46CF
:102B60001D460024FFF7E2F80090012109031B48ED
:102B7000FDF722FE00BF0FE0395D1948FEF7EAF9C4
:102B800000BF01211648FEF7F1F80028F9D01448DB
:102B9000FEF7D0F92870641CB442EDDB00240FE08E
:102BA00000210F48FEF7D6F900BF01210C48FEF7BF
:102BB000DDF80028F9D00A48FEF7BCF92855641C56
:102BC00003988442ECD30098FFF7ACF80121090385
:102BD0000248FDF7F3FD002005B0F0BD00040048F9
:102BE000003800401CB502200090012168460171A8
:102BF00003214171002181710221C17169460D4893
:102C0000FDF766FD02210B48FDF7D6FD0120FDF71B
:102C10007FFC022000900021684601710321417170
:102C20000021C17169460348FDF752FD0520FDF7FB
:102C30006FFC1CBD0008004810B504460020FFF7DB
:102C4000EFFB10BD70B504460026A5887F2D57DC2C
:102C5000A079022806D1E079002803D101202A4971
:102C600008704DE0082120680840002811D000BFFE
:102C700000210F20FFF769FB802108400028F7D0D2
:102C8000802200210F20FFF771FDFFF7E9F9FFF720
:102C9000FAFB01201D4908701D4800780A282CDC29
:102CA0001C490978902251431B4A88180022294662
:102CB000FFF7A2FB174800789021484316494018B7
:102CC000407A80280BD1FFF709FE124A1278902330
:102CD0005A43114BD21880239850803251600A21F8
:102CE0000C480078401CFDF737FAC8B20949087053
:102CF00007480078401C0649087000200349087006
:102D00000020FFF78DFB70BD24000020260000206E
:102D10002200002020000020B00900200121014AEB
:102D2000117070472500002000B585B000211148C2
:102D3000FEF70EF8002168460180FF210531418031
:102D40000721090281800021C180018101214902FE
:102D50004181102181810021C181072101826946C1
:102D60000448FEF70DF801210248FDF7F1FF05B018
:102D700000BD00000038004000B587B00121880484
:102D8000FDF792FE01218803FDF79EFE00220D2132
:102D90002A48FDF7E5FC00220E212848FDF7E0FC5B
:102DA00000220F212548FDF7DBFC0720400300909F
:102DB00002216846017103214171002181710121C5
:102DC000C17169461D48FDF783FC002168460181F9
:102DD000FF21053141810721090281810021C18143
:102DE0000182012149024182382181820021C18270
:102DF0000721018302A91248FDF7C2FF012109033F
:102E00000F48FEF79DF801210D48FDF7A1FF0120B5
:102E100000030090012168460171032141710021E6
:102E200081710221C17169460448FDF751FC0121FD
:102E300009030248FDF7C2FC07B000BD00040048CA
:102E40000038004000B585B014220CA16846FDF79B
:102E500097F9FFF705F9002269461320FFF7D5FC23
:102E6000012200211320FFF7E5FC09A0FEF718FC62
:102E70000220FFF719FC05B000BD0000618800CA00
:102E8000DE01000200A10200AC2E9D7D3D0000008D
:102E90007465737466756E312065786563757465E5
:102EA00064210D0A0000000000B585B014220CA1B9
:102EB0006846FDF765F9FFF7D3F8002269460C2054
:102EC000FFF7A3FC012200210C20FFF7B3FC09A0AF
:102ED000FEF7E6FB0220FFF7E7FB05B000BD0000B0
:102EE000418800CADEFFFF0100A00000AC2E9D7DDE
:102EF0003D0000007465737466756E3220657865F8
:102F00006375746564210D0A0000000008220168E1
:102F10001140002903D00121034A117002E0012170
:102F2000024A117070470000270000202300002093
:102F300010B5044601A0FEF7B3FB10BD43686970ED
:102F40002077696C6C206578706C6F646520696EA1
:102F500020332073656373212121000030B595B0C3
:102F6000054613AB12AA09A9284600F055FA0446F3
:102F7000002C02D0204615B030BD0020149027E070
:102F80002249096810AA127CD200891813AB11AA31
:102F9000486801A900F040FA0446002C01D0204600
:102FA000E9E709A901A800F0E6FC00280BD110A868
:102FB0000179007A814201DD0220DCE710A8007C63
:102FC000124988750AE010A8007C401CC1B2149117
:102FD0000E48007D10A9097C8842D1DC00BF0B4857
:102FE000007D10A9097C884201D10420C3E714A9FF
:102FF000284600F0FDFA0446002C01D02046BAE72E
:1030000010A8007C014948750020B4E7F4010020B5
:10301000F0B59DB0A648847D007DA04201DC1DB0C6
:10302000F0BDA3490968E200891809AB0AAA4868FB
:103030000BA900F0F1F90BA99EA0FEF731FB0026C9
:1030400045E09B48008B0121B140084000281BD07F
:1030500022219AA0FEF724FB304600F051FB944950
:1030600024314718394696A0FEF71AFB222193A077
:10307000FEF716FB304600F043FB8D492431401823
:10308000B10013AA505018E0304600F039FB8849CF
:1030900024310858B10013AA50508548C07D00283B
:1030A00005D1B000115887A0FEF7FAFA05E0B0008C
:1030B00013AA115884A0FEF7F3FA08A8007A401E5C
:1030C000B04202D082A0FEF7EBFA701CC6B208A88C
:1030D000007A8642B5DB7FA0FEF7E2FA00F05EFBE5
:1030E0007348407D0300FEF7EBFA0B070E161F2A0C
:1030F0003746586C8299B1006D490968E2008858DA
:1031000080470546A2E06A4A1268E300D158139846
:10311000884705469AE0664B1B68E700DA59149920
:1031200013989047054691E061490968E700CB593B
:10313000159A1499089113989847054686E05C49BA
:103140000968E700C959079114A90EC90891079F9A
:103150001398B847054679E01798554B00901B68BF
:10316000E700DB590793169B0893079F13A807C82E
:10317000B84705466AE0189917984D4A01910090A2
:103180001268E300D758169A0892159A0792089B7E
:1031900014991398B847054658E0189A1999179842
:1031A000019202910090424A1268E700D2590792B8
:1031B000169B159A0892079F14991398B8470546CD
:1031C00044E0189B179A19991A980193009202915A
:1031D0000390374A1268E700D2590792169B159A56
:1031E0000892079F14991398B84705462EE0199B3B
:1031F0001B9A18991A9802930492019103901798B8
:1032000000902B480068E100475814A80DC80890AA
:10321000139807900899B847054617E01A9B1B9A20
:103220001C99199803930492059102901899179884
:10323000019100901E480068E700C059079013A84C
:103240000FC80890079FB847054600BF00BF00F0B1
:1032500067FA08A8007901280DD11548C07D00281B
:1032600004D129461CA0FEF71BFA07E029461CA042
:10327000FEF716FA02E019A0FEF712FA0C48E03049
:10328000007B002812D00A498031086F0A21FCF720
:103290004DFF0F4606498031086F0A21FCF746FFB3
:1032A0003A460146089011A0FEF7FAF900BFB6E6CB
:1032B000F40100200D0A257328000000256300009A
:1032C00025730000256C750030582558000000005B
:1032D0002C000000290000003D256C753B0D0A0004
:1032E0003D305825583B0D0A0000000046756E63BE
:1032F00074696F6E2052756E2054696D653A25644D
:103300002E2531646D730D0A00000000F0B50346F0
:10331000154600200022002600245CE01F782C2F98
:1033200002D1002C00D101221F78292F02D01F7852
:10333000002F02D1002C00D14EE0002E36D11F7894
:10334000302F02DB1F78392F11DD1F78612F02DB50
:103350001F78662F0BDD1F78412F02DB1F78462F69
:1033600005DD1F78582F02D01F78782F0DD1002A45
:1033700000D031E01F78612F03DB1F78203F0F70F2
:1033800001E01F780F70491C22E01F78222F05D121
:10339000002A00D020E00126012419E01F78202F08
:1033A00016D01F782C2F13D0FF2615E01F78222F60
:1033B00000D10024002A00D00EE0002C08D01F7895
:1033C0005C2F02D15B1C471CF8B21F780F70491CA0
:1033D000471CF8B25B1CA1E700BF00270F702E70DE
:1033E000F0BD10B50446002010700BE02078087086
:1033F000641C491C1078401C10701078984201DB46
:10340000012010BD2078202802D020780028EDD19E
:103410000020087000BFF4E7FFB587B00027002048
:103420000590049001200390002000900025079C47
:103430001EE02078202817D06806400E052813DAF1
:10344000002D01D1802005436806400E042803D1D9
:1034500020782A2800D00EE020786906490E01AABB
:103460005054681CC5B202E0852D00D103E0641CF5
:1034700020780028DDD100BF002D12D00020690681
:10348000490E01AA505458A101A800F074FA00286E
:1034900003D100210A98017002E001210A9801700D
:1034A000002500200690079C14E0641C0698401C30
:1034B000C0B206902078202802D020782A2809D18E
:1034C000204600F0E5F90646282E03D02A2E01D02A
:1034D000069805902078282802D020780028E4D18A
:1034E000079C0598002802D00598401C241800204D
:1034F000069000265EE02078002802D10120069088
:1035000059E02078282804D1002E02D1781CC7B2B7
:1035100017E0207829280BD1002E09D1002F02D0E6
:10352000781EC7B201E001200690002F09D142E0C9
:103530002078222805D1002E01D1012000E00020B2
:103540000646002F09D12078202832D0217808980B
:1035500001700898401C08902BE020782C2804D19A
:1035600001200390681CC5B216E02078202813D0F3
:103570002078282810D0002D0AD10098052807DAD5
:10358000217801AA009811540098401CC0B2009004
:103590000398401CC0B20390012F0AD1039802285F
:1035A00007D10398401CC0B203900498401CC0B2DD
:1035B0000490641C9FE700BF049801280AD10021F1
:1035C00001AA0098115408A101A800F0D4F900281C
:1035D00000D104900999049808700021089801709E
:1035E00006980BB0F0BD0000766F69640000000023
:1035F000F0B5B7B005460F460024002604E00021D0
:103600003E488155701CC6B20A2EF8DB06E06D1CE0
:103610002878002802D1012037B0F0BD287828286A
:10362000F5D16D1C64E036AA01A92846FFF76EFEAD
:103630000646AD1930A8007E002804D0012829D004
:10364000FF284DD14AE068460079002821D035A9ED
:1036500001A800F028F90646002E01D00220DBE781
:10366000204600F04DF825490A31359A0A5008469F
:103670002438008B0121A140884320491A3908834E
:1036800004211E480155601CC4B20A2C01DD032030
:10369000C2E725E001A800F08CF9401CC0B23490CC
:1036A000204600F02DF815490A31401801460090D7
:1036B00001A800F072F911481A38008B0121A140CD
:1036C00008430E491A3908831A3134980855601C8A
:1036D000C4B20A2C01DD03209EE701E002209BE733
:1036E00000BF2878292802D02878002800D100E0DF
:1036F00099E700BF3C7000208EE700000E0200201A
:1037000002460020002105E0044B5B5C1B18D8B288
:103710004B1CD9B29142F7DB704700000E0200202B
:1037200010B501210A48FDF79AFD012805D1094885
:10373000006F09494118074801670548FDF78CFDEE
:103740000449096F411803480167006F10BD00006C
:103750000020004074020020FFFF000010B5044666
:10376000204664225043401E81B27D20C000FDF7F8
:10377000DFFD01200149C87510BD0000F4010020E3
:1037800010B50246012002E00346534318460B469B
:103790004C1EE1B2002BF7D110BD000010B5012185
:1037A0000748FDF745FD07490548FDF77FFD002166
:1037B0000348FDF77DFD00210348016710BD0000AF
:1037C00000200040FFFF00007402002070B51F4879
:1037D00000880121C9030840002835D01B4805781E
:1037E00000201B4948551B488168194888470446F2
:1037F000002C03D11749C868804722E0144800F024
:10380000E5F80546012D00D02C46002C19D0012CDE
:1038100006D0022C08D0032C0AD0042C10D10BE0C7
:103820000DA0FDF73DFF0BE00EA0FDF739FF07E00F
:103830000FA0FDF735FF03E010A0FDF731FF00BF3B
:1038400000BF00200149088070BD0000000000207A
:10385000EC020020F4010020BAAFCAFDB4EDCEF3B3
:10386000210D0A00B2CECAFDB4EDCEF3210D0A003F
:10387000B2CECAFDCCABB6E0210D0A00CEB4D5D293
:10388000B5BDC6A5C5E4B5C4BAAFCAFD210D0A00D1
:103890000146491C00E0491C0878202801D1002974
:1038A000F9D108787047FCB507460E4600250A2076
:1038B00000903C46002030601FE02078392802DC70
:1038C000207830280ADA2078462802DC207841283F
:1038D00004DA2078582809D1012D07D12078412811
:1038E00001DB10200090681CC5B205E0207800289C
:1038F00000D103E00120FCBD641CDEE700BF3C46B4
:10390000009810280FD1032D01DA0220F3E7207868
:10391000302806D16078582803D1A41CA81EC5B24F
:1039200005E00320E7E7002D01D10420E3E71EE0D6
:10393000002D01D0681EC5B22078392806DC207819
:10394000302803DB20783038019002E020783738C7
:10395000019029460098FFF713FF01994843316809
:1039600040183060641C2078002800D100E0DFE7B8
:1039700000BF0020BFE702460BE010780B789842AA
:1039800001D0012070471078002800D102E0521CBD
:10399000491CF2E700BF0020F4E707E002780A7054
:1039A0000278002A00D102E0401C491CF6E700BF63
:1039B00070470146002006E00A78002A00D103E0A3
:1039C000421CD0B2491CF7E700BF704710B58CB05D
:1039D00004461E230BAA03A92046FFF702FD009010
:1039E0000098002802D001200CB010BD08A8007B70
:1039F000241800210B910FE008A8007B80003F4AAB
:103A0000115803A8FFF7B7FF002800D108E008A865
:103A1000007B401CC1B20B9108A8007B0728EBD3A8
:103A200000BF08A8007B0300FDF74AFE0705063D1E
:103A30005F666564630000BF31A0FDF731FE31A011
:103A4000FDF72EFE3FA0FDF72BFE4EA0FDF728FE52
:103A50005CA0FDF725FE6BA0FDF722FE79A0FDF727
:103A60001FFE86A0FDF71CFE8BA0FDF719FE90A09F
:103A7000FDF716FE94A0FDF713FE99A0FDF710FECA
:103A80009EA0FDF70DFEA4A0FDF70AFEB0A0FDF775
:103A900007FEBDA0FDF704FEC8A0FDF701FED4A0FF
:103AA000FDF7FEFD9EE216A0FDF7FAFDE0A0FDF792
:103AB000F7FD00200B900EE0ED48026808A8007B9F
:103AC000C00010184168EBA0FDF7EAFD08A8007BD4
:103AD000401CC1B20B91E648007D08A9097B8842D1
:103AE000EADC07A0FDF7DCFD7CE205A0FDF7D8FDD0
:103AF000C4E175E247E219E2EBE100007801002041
:103B00000D0A00002D2D2D2D2D2D2D2D2D2D2D2D82
:103B10002D2D2D2D2D2D2D2D2D2D2D2D55534D4153
:103B200052542056332E312D2D2D2D2D2D2D2D2D52
:103B30002D2D2D2D2D2D2D2D2D2D2D2D2D2D2D20C2
:103B40000D0A00002020202055534D415254CAC771
:103B5000D3C9414C49454E54454BBFAAB7A2B5C441
:103B6000D2BBB8F6C1E9C7C9B5C4B4AEBFDAB5F7C0
:103B7000CAD4BBA5BDBBD7E9BCFE2CCDA8B9FD20DE
:103B80000D0A0000CBFC2CC4E3BFC9D2D4CDA8B928
:103B9000FDB4AEBFDAD6FACAD6B5F7D3C3B3CCD02C
:103BA000F2C0EFC3E6B5C4C8CEBACEBAAFCAFD2CD8
:103BB000B2A2D6B4D0D02ED2F2B4CB2CC4E3BFC9BB
:103BC0000D0A0000D2D4CBE6D2E2B8FCB8C4BAAF3A
:103BD000CAFDB5C4CAE4C8EBB2CECAFD28D6A7B3A5
:103BE000D6CAFDD7D62831302F3136BDF8D6C629F2
:103BF000A1A2D7D6B7FBB4AEA1A2BAAFCAFDC8EB9B
:103C00000D0A0000BFDAB5D8D6B7B5C8D7F7CEAA27
:103C1000B2CECAFD292CB5A5B8F6BAAFCAFDD7EE0B
:103C2000B6E0D6A7B3D63130B8F6CAE4C8EBB2CE08
:103C3000CAFD2CB2A2D6A7B3D6BAAFCAFDB7B5207B
:103C40000D0A0000BBD8D6B5CFD4CABE2ED0C2D480
:103C5000F6B2CECAFDCFD4CABEBDF8D6C6C9E8D624
:103C6000C3B9A6C4DC2CD0C2D4F6BDF8D6C6D7AA38
:103C7000BBBBB9A6C4DC2E0D0A000000BCBCCAF553
:103C8000D6A7B3D63A7777772E6F70656E65647670
:103C90002E636F6D0D0A000055534D415254D3D021
:103CA00037B8F6CFB5CDB3C3FCC1EE3A0D0A00006C
:103CB0003F3A202020202020BBF1C8A1B0EFD6FA47
:103CC000D0C5CFA20D0A000068656C703A20202094
:103CD000BBF1C8A1B0EFD6FAD0C5CFA20D0A000043
:103CE0006C6973743A202020BFC9D3C3B5C4BAAF7E
:103CF000CAFDC1D0B1ED0D0A0A00000069643A2086
:103D000020202020BFC9D3C3BAAFCAFDB5C44944DF
:103D1000C1D0B1ED0D0A0A006865783A2020202054
:103D2000B2CECAFD3136BDF8D6C6CFD4CABE2CBA83
:103D3000F3B8FABFD5B8F12BCAFDD7D6BCB4D6B408
:103D4000D0D0BDF8D6C6D7AABBBB0D0A0A0000006A
:103D50006465633A20202020B2CECAFD3130BDF820
:103D6000D6C6CFD4CABE2CBAF3B8FABFD5B8F12B99
:103D7000CAFDD7D6BCB4D6B4D0D0BDF8D6C6D7AA63
:103D8000BBBB0D0A0A00000072756E74696D653A5E
:103D9000312CBFAAC6F4BAAFCAFDD4CBD0D0BCC6B2
:103DA000CAB13B302CB9D8B1D5BAAFCAFDD4CBD04B
:103DB000D0BCC6CAB13B0D0A0A000000C7EBB0B4C4
:103DC000D5D5B3CCD0F2B1E0D0B4B8F1CABDCAE415
:103DD000C8EBBAAFCAFDC3FBBCB0B2CECAFDB2A23B
:103DE000D2D4BBD8B3B5BCFCBDE1CAF82E0D0A00D5
:103DF0002D2D2D2D2D2D2D2D2D2D2D2D2D2D2D2DF3
:103E00002D2D2D2D2D2D2D2D2D2D414C49454E5433
:103E1000454B2D2D2D2D2D2D2D2D2D2D2D2D2D2D9C
:103E20002D2D2D2D2D2D2D2D2D2D2D200D0A00006C
:103E30002D2D2D2D2D2D2D2D2D2D2D2D2D2D2D2DB2
:103E40002D2D2D2D2D2D2D2D2DBAAFCAFDC7E5B54C
:103E5000A52D2D2D2D2D2D2D2D2D2D2D2D2D2D2D1A
:103E60002D2D2D2D2D2D2D2D2D2D2D2D200D0A00FF
:103E7000F401002025730D0A000000005BA0FDF78F
:103E80000FFC00200B901AE068490A6808A9097B1A
:103E9000C900511801AB02AA486803A9FFF7BCFA90
:103EA0006248016808A8007BC0000A5803A960A006
:103EB000FDF7F6FB08A8007B401CC1B20B915B48E4
:103EC000007D08A9097B8842DEDC5EA0FDF7E8FBE7
:103ED00088E05CA0FDF7E4FB0BAA03A92046FFF7EE
:103EE00015FA08A8007B00281AD1694603A8FFF735
:103EF000DAFC0B9008A9087B002804D152A0009995
:103F0000FDF7CEFB0EE008A8007B042801D00220BC
:103F10006AE550A0FDF7C4FB01204449C87501E0E3
:103F2000022061E547A0FDF7BBFB5BE045A0FDF784
:103F3000B7FB0BAA03A92046FFF7E8F908A8007B06
:103F400000281AD1694603A8FFF7ADFC0B9008A919
:103F5000087B002804D144A00099FDF7A1FB0EE0E6
:103F600008A8007B042801D002203DE541A0FDF710
:103F700097FB00202D49C87501E0022034E531A0EF
:103F8000FDF78EFB2EE02FA0FDF78AFB0BAA03A9FD
:103F90002046FFF7BBF908A8007B00281AD1694624
:103FA00003A8FFF780FC0B9008A9087B00280FD11D
:103FB0000098C1B21D48E0300173007B002803D097
:103FC00031A0FDF76DFB07E036A0FDF769FB03E0CC
:103FD000022009E5022007E51AA0FDF761FB01E0D8
:103FE000012001E500BF0020FEE400002D2D2D2D55
:103FF0002D2D2D2D2D2D2D2D2D2D2D2D2D2D2D2DF1
:104000002D2D2D2D2DBAAFCAFD204944202D2D2D4B
:104010002D2D2D2D2D2D2D2D2D2D2D2D2D2D2D2DD0
:104020002D2D2D2D2D2D2D2D200D0A00F4010020DC
:1040300025732069642069733A0D0A305825303899
:10404000580D0A000D0A00004845583A30582558C6
:104050000D0A00003136BDF8D6C6B2CECAFDCFD4A7
:10406000CABE210D0A0000004445433A256C750D77
:104070000A0000003130BDF8D6C6B2CECAFDCFD49A
:10408000CABE210D0A00000052756E2054696D658C
:104090002043616C63756C6174696F6E204F4E0DC7
:1040A0000A00000052756E2054696D652043616CF2
:1040B00063756C6174696F6E204F46460D0A00008F
:1040C000FFB581B005460E4617460024FDF72EFECB
:1040D0000090012109031A48FCF76EFB00BF0EE0B7
:1040E000315D1848FCF736FF00BF01211548FCF789
:1040F0003DFE0028F9D01348FCF71CFF641CAC42BD
:10410000EEDB00240FE00498015D0E48FCF722FF6F
:1041100000BF01210B48FCF729FE0028F9D009480F
:10412000FCF708FF641CBC42EDD3012109030448DD
:10413000FCF744FB0098FDF7F5FD002005B0F0BD4D
:10414000000400480038004000000102030400059C
:10415000405C0000A05C0400C06C0800805C0400AF
:10416000E03F1E00E07D1E0007040009080540082E
:1041700009104008080540081D0400081D04000837
:104180001E265626BEBED8BC07A9022570889B886D
:10419000401008000A00160001000600010002009D
:1041A00087008D002D001A3152001A339A001A35FB
:1041B0001D011A376B003B31BE003B335E013B35BE
:1041C00096023B37000098599859EA518E421E4595
:1041D000142E0080EA51F4283233E03A703DE03A80
:1041E000C235842BC2353233C235C235AE47E03AD0
:1041F0005038A230503800003F0000006465630072
:104200006964000072756E74696D650068656C7034
:10421000000000006C69737400000000686578009D
:10422000766F696420726561645F74657374287564
:104230006E7369676E65642063686172206164648F
:1042400029000000766F6964207465737466756E6A
:104250003128766F69642900766F6964207465730C
:104260007466756E3228766F69642900766F6964AA
:10427000205365745F73746172745F415228766F66
:1042800069642900766F696420556E7365745F7385
:10429000746172745F415228766F6964290000006E
:1042A000766F6964206765746C6F6374696D6528E7
:1042B000766F696429000000766F6964205072741B
:1042C0005F616E63686E756D28766F6964290000A2
:1042D000766F69642053797374656D5F47657443C5
:1042E0006C6F636B7328766F69642900766F6964FD
:1042F00020444D415F7465737428766F69642900AA
:10430000766F696420756E6C6F636B666C61736841
:1043100028756E7369676E656420696E74207061BC
:104320007373776429000000766F69642067657491
:104330004944732875696E743820696E64657829FC
:1043400000000000766F69642067657453595373E9
:1043500074617475732875696E743820696E64654C
:10436000782900008443000800000020EC020000CF
:104370006A02000858440008EC020020BC13000048
:10438000EC160008012A13618823CADE027E01149C
:1043900001011413020222021A818F280941434BA2
:1043A0004441545258955A41A083802C192531021A
:1043B0001DFF3936293F9A210C3A103A790F021F16
:1043C000231AFF0179A069082C02030404150607CB
:1043D00008094B6CDC8B5918291413F84114080C8C
:1043E000421B0814041119041A1C041AFC141A04A0
:1043F0000813D5101B08D00813BD28140844431B0C
:104400000891081A2808133D2B1B0820181A212090
:104410001A6C08139F161B08840813850A1B08B81A
:10442000081B312F4C19281B452E3819101AA908C2
:104430001A5808130D291B08A00813E1041B08ECE7
:104440000813940114205D371B085D301311301BD5
:0844500008CD0C8A0CBB01D958
:04000005080000C12E
:00000001FF
