:020000040800F2
:1000000040160020D5000008DD0A0008750A000827
:1000100000000000000000000000000000000000E0
:1000200000000000000000000000000013120008A3
:100030000000000000000000350D0008FD1200085F
:100040000501000805010008050100080501000878
:100050000501000805010008050100081108000855
:100060000501000805010008350400080501000825
:100070000501000805010008050100080501000848
:1000800005010008050100085914000821140008A2
:100090000501000805010008050100080501000828
:1000A0000501000805010008050100088D1600087B
:1000B0000501000805010008050100080501000808
:1000C0000348854600F0B0F800480047F9300008C2
:1000D000401600200C4880F308880C480168090E7F
:1000E0000B4A914205D10B480B4901600B480C4962
:1000F00001600C4880470C480047FEE7FEE7FEE73A
:10010000FEE7FEE7FEE700004016002004000000C6
:100110001F00000018100240010000000000014014
:10012000000000000D130008C100000830B50B46A8
:10013000014600202022012409E00D46D5409D42C1
:1001400005D31D469540491B254695404019154647
:10015000521E002DF1DC30BD70B50024254600286C
:1001600001DA01244042002901DA01254942FFF762
:10017000DDFFAC4200D04042002C00D0494270BDAF
:1001800003460B439B0703D009E008C9121F08C0B0
:10019000042AFAD203E00B780370401C491C521E5B
:1001A000F9D27047D2B201E00270401C491EFBD266
:1001B00070470022F6E710B513460A460446194672
:1001C000FFF7F0FF204610BDF0B51FB40646002033
:1001D00082B005464024019100901BE0019922461F
:1001E0000F46304600F042F8049A059B801A994168
:1001F00010D310461946224600F028F8361A8F41CF
:100200000197224601200021009F00F01FF83818B6
:100210004D4100902046641E0028DFDC019B0098C1
:100220002946324607B0F0BD064C0125064E05E0D2
:10023000E36807CC2B430C3C98471034B442F7D307
:10024000FFF742FFFC4B00081C4C000810B5202AA9
:1002500004DB0146203A9140002010BD914020234C
:100260009C1A0346E3401943904010BD10B5202A64
:1002700004DB0846203AD040002110BD0B46D34095
:10028000D0402024A21A91400843194610BD70B5F1
:100290008C180578401C6B075B0F01D10378401C5C
:1002A0002A1106D10278401C03E006780E70401C2B
:1002B000491C5B1EF9D12B0705D40023521E0DD417
:1002C0000B70491CFAE70378401CCB1A921C03E020
:1002D0001D780D70491C5B1C521EF9D5A142D8D364
:1002E000002070BD10B52148007890214843204976
:1002F0004018C0791F4948711C4800789021484334
:100300001B494018007A1B4988711B480068887295
:10031000194800680004000EC872174800680002FF
:10032000000E087314480068000E487313480078E4
:100330008873124800880012C87302F035FA002250
:100340000C49122002F015FE00221146122002F084
:1003500025FE022002F05CFD00BF0948007800285D
:10036000FBD000200649087010BD000021000020CD
:1003700048090020C6000020E8000020DE00002020
:100380002300002001460248017000687047000009
:10039000003002400020C04305490860054848611C
:1003A00000200871401E086101208860704700002D
:1003B00000300240B71DC1040148006870470000CA
:1003C0000030024001460020054A9068182302468A
:1003D0009A43104602460A431046014A906070470D
:1003E00000300240034880680121084301498860C9
:1003F000704700000030024001490861704700006A
:10040000003002400149486170470000003002405E
:1004100010B50121402000F0A1FCFFF7BBFF002038
:10042000FFF7EAFF1020FFF7CDFF0720FFF7EAFFF5
:1004300010BD000010B5202000F032F800280CD0CC
:10044000202000F00FF8102000F00CF800210348E5
:1004500000F018F800200249087010BD1C0002408E
:10046000C4000020012109070140002902D00349EE
:10047000486001E002494860704700000004024003
:1004800000000240002904D0026801231A430260E0
:1004900003E00268014B1A4002607047FEFF000053
:1004A00001460020002201231B070B40002B02D035
:1004B000064B1A6801E0064B1A6813460B40002BE6
:1004C00001D0012000E0002070470000000402403D
:1004D00000000240002A03D003680B43036002E0DF
:1004E00003688B430360704710B5002202680D4B10
:1004F0001A400C6A8B6823430C6923434C692343DD
:100500008C692343CC6923434C6A23438C6A23437D
:100510001A430260CB6843600B6883604B68C3601A
:1005200010BD00000F80FFFF10B50B4A904200D1B4
:1005300000E000BFA82212580B0F9C000F23A3401D
:100540009A43A8231A50A82212580B011B091A43D8
:10055000A8231A5010BD00000000024000B58DB065
:100560000121084600F0FAFB1020059000200890B9
:10057000099006908020079000200A900C90114866
:1005800003901020049040020B900F48029002A9A3
:100590000E48FFF7A9FF0E490C481C38FFF7C4FFAF
:1005A000012202210948FFF795FF0A2168460171DF
:1005B000032141710121817101A800F047FB0DB0B9
:1005C00000BD000038100020283801401C00024007
:1005D0008000001010B5012007490870202007494D
:1005E000086201228021064801F000F900BF02489C
:1005F00000780028FBD110BDC4000020000002409C
:1006000000380140F0B58BB000BF002008901822E0
:1006100060496846FFF7B4FD02F0C6F802F0E0FA60
:1006200001205D4908705D480078902148435C498D
:100630004018C17968464171584800789021484374
:1006400057494018007A0002C1B268468171012101
:10065000C17100210172112141727D20C00002F0A0
:100660006FFB00200A90002269460C2002F081FCFA
:10067000012200210C2002F091FC022002F0C8FBB4
:1006800009900998401C002802D1801E0BB0F0BDD3
:1006900000BF444800780028FBD000204149087082
:1006A0000A9000BF002002F068FA00BF3E480078C0
:1006B000002803D13D4800780028F7D03A48007858
:1006C000012809D13AA001F04FFB002036490870FB
:1006D0000A98401CC0B20A900A98022801D1C01E94
:1006E000D4E7324800780028DCD1304908700A90FD
:1006F00002F0DDFC0791069002F0C2FC04460D46B4
:1007000029462E4A0020A21841410906100A084332
:100710000890089802F082FA0898400840000021EA
:10072000020E0B0213430102254A00208E1843419A
:100730001F4602A80230079B069A02F052FC22468E
:100740002B4603A8033002F04CFC32463B4605A87A
:1007500002F047FC00226946162002F00AFC012242
:100760000021162002F01AFC012002F051FB099032
:100770000998401C002801D1801E87E700BF094866
:1007800000780028FBD00020064908700249087054
:1007900000BF7BE7C8490008280000202100002096
:1007A000480900202300002025000020260000200A
:1007B00054696D65206F75740D0A000000001C0CF3
:1007C0006F40000001B581B00022009200200F4967
:1007D00009688AB2009215E00C4909686A461288D5
:1007E000914206D3094909686A461288891A88B273
:1007F00008E0694609880022D243511A034A126868
:10080000891888B201998842E6D30CBDE80000201F
:1008100010B50120000300F063F800280FD000BFDE
:10082000244800688047012109030920C00600F020
:1008300013F90128F4D00120000300F04BF8012047
:10084000C00200F04DF8002832D00120C00200F0B4
:1008500041F819480078002827D100BF17480078D0
:10086000322817DC164909784901164A881800F021
:100870009AF9002811D111480078401C0F490870DE
:1008800032210F480078401CFFF766FCC8B20C49C3
:10089000087002E00C4800F086F90121C9020B48FB
:1008A00000F0DAF80028D9D002E0012008490870E9
:1008B00010BD0000040000202900002008000020D6
:1008C0000A00002008030020090F0020000400484F
:1008D0002A000020014948617047000000040140DF
:1008E00001460020044A52690A40002A01D0012032
:1008F00000E0002070470000000401400021204972
:100900008279002A35D00A46126803689A430B465A
:100910001A600A46526803689A430B465A60027985
:1009200051180A6803681A430A60154A92680368F6
:100930009A43134B9A601A46D26803689A43104B45
:10094000DA604279102A0CD11A46926803681A4379
:100950000B4B9A601A46D26803681A43084BDA6058
:100960000DE00749427951180A6803681A430A6082
:1009700005E0027951180A6803689A430A607047D3
:1009800000040140F0B50A4600210023002400BF06
:100990003DE001258D402B4615681D402C469C42AC
:1009A00034D11579012D02D01579022D16D1856823
:1009B0004F000326BE40B543856055794E00B540D3
:1009C000866835438560858801268E40B5438580DD
:1009D000858896798E40B6B23543858005684F008C
:1009E0000326BE40B543056015794E00B540066844
:1009F00035430560C5684F000326BE40B543C5605A
:100A0000D5794E00B540C6683543C560491C1029EC
:100A1000BFD3F0BDF0B5002300244D07EE0E154600
:100A2000B5402B46CD10AE0005462035AD594E07DA
:100A3000F70E0F26BE40B543CE10B600074620374E
:100A4000BD51CD10AE003D46AD591D432C46CD10D5
:100A5000AD003E467451F0BD02460020138A0B40A3
:100A6000002B01D0012000E0002070470185704775
:100A70008161704700BFFEE71CB50121C80400F08A
:100A80006DF90320C0020090012168460171002128
:100A90008171032141710121C17169460D48FFF740
:100AA00071FF0121080500F059F90420009001218F
:100AB0006846017100218171032141710121C171D9
:100AC00069460548FFF75EFF04210348FFF7CEFFA4
:100AD0001CBD000000080048000C004870470000E2
:100AE0001FB515A103C90391029000200090019049
:100AF000052202A9302000F075F805226946102071
:100B000000F01EF868460078112812D16846407837
:100B100022280ED16846807833280AD16846C078EA
:100B2000442806D168460079552802D1002004B037
:100B300010BD0120FBE700001122334455000000E6
:100B4000F8B507460D46164610210920C006FFF7E6
:100B50008DFF384600F02EFB0090002405E0FF20BA
:100B600000F028FB2855601CC4B2B442F7DB10210A
:100B70000920C006FFF77CFF0098F8BD70B5044659
:100B800010210920C006FFF771FF204600F012FB7C
:100B9000FF2000F00FFB054610210920C006FFF7DB
:100BA00067FF284670BD70B504460720FFF7E6FFD3
:100BB00005461720FFF7E2FF06462946272000F0EA
:100BC0002FF84020284000280AD02022214661200A
:100BD000FFF7B6FFFF21E22000F022F8002070BDF1
:100BE0000120FCE7F8B507460C4615461021092000
:100BF000C006FFF73BFF384600F0DCFA0090002605
:100C000005E02078641C00F0D5FA701CC6B2AE4234
:100C1000F7DB10210920C006FFF72AFF0098F8BD76
:100C200070B505460C4610210920C006FFF71EFFCF
:100C3000284600F0BFFA0646204600F0BBFA102115
:100C40000920C006FFF714FF304670BD00218278EE
:100C5000002A27D0184A03231B02D21803789B10BE
:100C60009B00D15802789207D30EFF229A400B4680
:100C70009343194642789207120E03789B07DB0EC6
:100C80009A4011430C4A03231B02D21803789B108D
:100C90009B00D1500278D306DB0E01229A40064B0E
:100CA0001A6007E00278D306DB0E01229A40024B5D
:100CB00080331A607047000000E100E010B50028A2
:100CC00019DA1A4A03071B0F083B9B089B00D258EE
:100CD0008307DC0EFF23A3409A438B071B0E840778
:100CE000E40EA3401A43114B0407240F083CA40848
:100CF000A4001A5118E00E4A03231B02D2188308DD
:100D00009B00D2588307DC0EFF23A3409A438B0736
:100D10001B0E8407E40EA3401A43054B0324240250
:100D20001B198408A4001A5110BD00001CED00E03E
:100D300000E100E07047000010B50348016803A01F
:100D400001F012F810BD0000EC000020616E636835
:100D50006F72206E756D3D25640D0A00002905D067
:100D6000054A52690243044B5A6104E0024A52693F
:100D70008243014B5A61704700100240002905D0A0
:100D8000054AD2690243044BDA6104E0024AD2699F
:100D90008243014BDA61704700100240002905D000
:100DA000054A92690243044B9A6104E0024A92693F
:100DB0008243014B9A61704700100240FEB5044621
:100DC0000025002600200290019000900027864810
:100DD00040680C2108400546002D06D0042D07D0A0
:100DE000082D08D00C2D2CD128E0804820602BE065
:100DF0007E48206028E07C4840680F218904084034
:100E00000646794840680321C90308400290B00CA7
:100E1000861C0298002803D17548374647430BE0EB
:100E20007148C06A0007000F401C01906F4801998B
:100E3000FFF77CF970430746276005E06D482060A6
:100E400002E06A48206000BF00BF67484068F021A8
:100E5000084005462D096848405D009020680099CB
:100E6000C8406060604840680721090208400546A4
:100E70002D0A6148405D009061680098C140A16002
:100E80005948006BFF2101310840884202D05B487D
:100E9000E0600DE054484068012189030840884221
:100EA00003D0A0684008E06002E0A0688008E0602D
:100EB0004D48006B40210840402802D05048206136
:100EC00002E00120C00320614748006B1021084068
:100ED000102802D04548606101E020686061424806
:100EE000006B8007800F002802D1A068A06119E084
:100EF0003D48006B8007800F012802D12068A06167
:100F000010E03948006B8007800F022802D180036F
:100F1000A06107E03448006B8007800F032801D1EF
:100F20003248A0613048006B0321090408400028C2
:100F300002D1A068E06120E02B48006B0321090486
:100F4000084001210904884202D12068E06114E0D0
:100F50002548006B03210904084001214904884207
:100F600002D18010E06108E01F48006B03210904F2
:100F70000840884201D11D48E0611B48006B0321F5
:100F800089040840002802D1A068206220E01648A9
:100F9000006B03218904084001218904884202D1A1
:100FA0002068206214E01048006B03218904084087
:100FB0000121C904884202D10011206208E00A48D8
:100FC000006B032189040840884201D10748206250
:100FD0000548006B80210840802802D005486062E7
:100FE00000E06762FEBD00000010024000127A00BF
:100FF00000093D00006CDC02F0000020809FD5005D
:1010000012800000002904D0028840231A43028085
:1010100003E00288014B1A4002807047BFFF0000C6
:101020000246002013890B40002B01D0012000E074
:101030000020704710B500220288C1239B011A408E
:101040000B88CC892343CC8823430C8923434C89C8
:1010500023438C8923431A4302808288084B1A4019
:101060008B881A4382800B8A03820288054B1A40C0
:101070004B881A430280838B034C2340838310BD2B
:10108000FFF00000FBFF0000FFF7000000B587B095
:10109000012107204004FFF761FE01210803FFF74B
:1010A0007DFE2020059002216846017601214176CF
:1010B000002181760121C17605A90920C006FFF72C
:1010C00061FC4020059005A90920C006FFF75AFCE5
:1010D0008020059005A90920C006FFF753FC0022D7
:1010E00005210920C006FFF795FC002206210920F2
:1010F000C006FFF78FFC002207210920C006FFF77A
:1011000089FC102005900121684601760021817636
:101110000121C176417605A90920C006FFF732FCFE
:101120000820059001216846017600218176012181
:10113000C176417605A90920C006FFF723FC0120EE
:10114000C00205900021684601760121C1764176F2
:1011500005A91648FFF716FC10210920C006FFF765
:1011600087FC002168460180FF210531418007216D
:10117000090281800021C180018101214902418150
:10118000102181810021C18107210182694608481F
:10119000FFF750FF01210903054800F02BF801215A
:1011A0000348FFF72FFF07B000BD00000004004810
:1011B0000030014010B5044600BF02210948FFF786
:1011C0002FFF0028F9D02146064800F01DF800BF87
:1011D00001210448FFF724FF0028F9D0014800F05E
:1011E00003F810BD00300140014600220A460C32CF
:1011F000107870478288034B1A40828082880A43A5
:1012000082807047FFEF0000002202460C3211700E
:101210007047704730B500228B071C0F0F23A34087
:101220001A460B4B8C10A4001B599343084C8D108D
:10123000AD00635123468C10A4001B598C07250F69
:101240000446AC402343024C8D10AD00635130BDC9
:101250000800014011201D4908601D4840681C49D4
:101260004860084640684860084640687F21C903D6
:10127000884317494860084640680521C904084367
:1012800013494860084600680121090608431049CF
:10129000086000BF0E480068012149060840002888
:1012A000F8D00B484068800880000949486008462B
:1012B0004068022108430649486000BF044840686E
:1012C0000C2108400828F9D1704700000020024096
:1012D0000010024070470000042806D10649096941
:1012E00004221143044A116105E0034909690422FB
:1012F0009143014A1161704700E000E00248006834
:10130000401C014908607047E800002010B51B48E8
:1013100000680121084319490860084640681849D7
:1013200008401649486008460068164908401349B5
:101330000860084600680121890488430F49086055
:10134000084640683F21090488430C494860084624
:10135000C06A00090001C8620846006BFF215431D1
:101360008843064908630846406B400840004863CC
:1013700000208860FFF76EFF10BD000000100240E3
:101380000CB8FFF8FFFFF6FE10B58AB06846FFF70D
:1013900015FD13490098FEF7C9FE0446214611A029
:1013A00000F0E2FC0E490198FEF7C0FE044621461B
:1013B00011A000F0D9FC0A490198FEF7B7FE0446D7
:1013C00021460DA000F0D0FC05490298FEF7AEFEC4
:1013D000044621460DA000F0C7FC0AB010BD000075
:1013E00040420F00535953434C4B202020203D20B6
:1013F00025644D487A0D0A0048434C4B2841484229
:1014000029203D2025644D487A0D0A0050434C4B5D
:101410002841504229203D2025644D487A0D0A007C
:1014200010B501210A4800F07EF801280AD10949C7
:10143000086980470021064800F094F864210448B8
:1014400000F08EF80121024800F04FF810BD0000B6
:10145000002000409001002010B5002401211D480B
:1014600000F061F8012830D1002C03D004201A4983
:10147000886103E00120800417498861002C01D1B4
:10148000012000E00020044601F08EF913480078A6
:101490001349887011480078401C10490870412099
:1014A0000F49087088204870A0204872FF204871BA
:1014B000887100220C2001F05CFD012200210C202B
:1014C00001F06CFD022001F0A3FC0121014800F0B5
:1014D0000CF810BD00140040000C0048C5000020AE
:1014E0002B000020CA4302827047CA430282704721
:1014F000002904D0028801231A43028003E00288F5
:10150000014B1A4002807047FEFF00000146486A06
:10151000704702460020138A0B40002B01D00120A7
:1015200000E00020704730B5024600200023002470
:10153000158A0D402B4695890D402C46002B03D073
:10154000002C01D0012000E0002030BD002A03D093
:1015500083890B43838102E083898B4383817047B6
:10156000C16270474162704700220288154B984261
:1015700006D001239B07984202D0134B984203D117
:10158000124B1A404B881A43114B984203D0114B0F
:101590001A400B891A4302804B68C3620B8803858B
:1015A000084B984208D00C4B984205D00B4B984200
:1015B00002D00B4B984201D18B7A038601238382A0
:1015C00070470000002C0140000400408FFF000025
:1015D00000100040FFFC00000040014000440140BA
:1015E0000048014070B500BF0F4800789021484383
:1015F0000E494018C4790C480078902148430B49A3
:101600004018007A80380002001984B20648007839
:10161000902148430549401885782A46214604A070
:1016200000F0A2FB002070BD21000020480900202E
:101630005441473A2564204E6F3A25640D0A000054
:101640007FB504460D4601210802FFF797FB02947F
:101650006846858000218181C18001A90A48FFF781
:1016600083FF012241210848FFF770FF13216846DC
:1016700001700221417001218170FFF7E7FA012119
:101680000148FFF735FF7FBD0020004010B520491D
:10169000204800F0BFF8002839D01E4800F07EF93D
:1016A000C4B21D4800880121C903084000282ED17A
:1016B000194800884910084000280DD00A2C03D092
:1016C00000201549088022E0134800880121C90341
:1016D0000843114908801AE00D2C07D10E480088F4
:1016E0000121890308430C49088010E00A4800885A
:1016F0008004800C09490C5407480088401C0649A6
:101700000880084600887F2801DD0020088010BD81
:10171000050105000038014000000020880200207B
:1017200001627047002904D0026801231A43026055
:1017300003E00268520852000260704700B589B0A9
:1017400001214804FFF70AFB01218803FFF726FB6C
:1017500001220921C806FFF75DF901220A210920AB
:10176000C006FFF757F901204002019002216846A8
:10177000017201214172002181720121C17201A90E
:101780000920C006FFF7FEF801208002019001A9A0
:101790000920C006FFF7F6F84B20C0010390002097
:1017A00004900590069008900C20079003A90D481E
:1017B00000F078F80C490B48FFF7B2FF01220A4904
:1017C000084800F04EF801210648FFF7ABFF1B2147
:1017D00068460170012141708170FFF737FA09B046
:1017E00000BD00000038014005010500002A03D0BB
:1017F00083680B43836002E083688B438360704798
:1018000002460020D3690B40002B01D0012000E0EC
:101810000020704770B502460B46002400210025C9
:1018200000201E04350ED9B201268E403146012D0E
:1018300002D11668314006E0022D02D156683140CF
:1018400001E0966831401C0C0126A6403446D6695A
:101850003440002903D0002C01D0012000E00020FA
:1018600070BDF8B503460024002600960025002030
:1018700018460E04340ECEB200960127009EB740E3
:101880003D46022C01D1001D02E0032C00D108309E
:10189000002A03D006682E43066002E00668AE43C5
:1018A0000660F8BDF0B58BB004460D460027002059
:1018B0000A900026206840084000206066680321E6
:1018C0000903304688430646A868064366602668D2
:1018D0002D480640E96868680843296908430643BB
:1018E0002660A668032109023046884306466869D7
:1018F0000643A6606846FFF761FA2448844202D195
:1019000006980A900DE02248844202D107980A9076
:1019100007E02048844202D108980A9001E002982A
:101920000A9020680121C903084000280CD02968CA
:101930000A9A5000FEF7FAFB074629680A9A5000F7
:10194000FEF7F4FB0E4609E029680A98FEF7EEFB65
:10195000074629680A98FEF7E9FB0E462868400802
:10196000B04200D87F1C20680121C903084000282C
:1019700006D03807460F3846074908403043074627
:10198000A7810BB0F0BD0000F3E9FFFF0038014074
:101990000044004000480040F0FF00000146888CF1
:1019A000C005C00D7047CA05D20D0285704770474B
:1019B000F8B50027002500200090DF48007890212E
:1019C0004843DE494018407A802858D1DA480078E8
:1019D00090214843D9494018C679D74800789021CA
:1019E0004843D6494018007A80380002801986B2F0
:1019F0000124D148007890214843D04940188021E3
:101A0000095880304068CE4A11605060CA4800785A
:101A100090214843C94940188778002E18D00020EB
:101A20000090C548007890214843C4494018807A06
:101A3000000100990843C0B20090BF48007890218F
:101A40004843BE494018C07A00990843009077E0A7
:101A5000B948007890214843B8494018807AB9497C
:101A60000880B548007890214843B4494018C07AAE
:101A70000002B44909884018B249088060E0AE48C5
:101A8000007890214843AD494018407A812857D1C9
:101A9000A949097890225143A84A891808460C3070
:101AA000A74901F08FFAA448007890214843A34940
:101AB0004018C479A0480078902148439F494018B5
:101AC000007A0002001984B29B48007890214843B4
:101AD0009A494018867A9848007890214843974957
:101AE0004018C07A80380002801986B29248007887
:101AF00090214843914940188778002E0AD000BFB2
:101B000000BF8D480078902148438C494018807C64
:101B1000009015E088480078902148438749401894
:101B2000407C884908808448007890214843834954
:101B30004018807C00028349098840188149088048
:101B4000002E7ED180480068401C002801D17E48CC
:101B500007607D48006887421BD1601E00017B49F9
:101B600040184480601E000140188680601E0001FD
:101B70004018C780724801684068621E1201734BAA
:101B8000D2189160D060AA21601E00011A4611523D
:101B9000CFE000BF6E4800780028FBD104206D49DB
:101BA0004881012088800220C8806B480088282155
:101BB0004843433067494880684808806648008841
:101BC000088100F00DFC6449087801F065FD00BF54
:101BD0005F4800780028FBD100216148007801F0BF
:101BE0000FFA00205E49087040215848FEF7E1FADC
:101BF000594800882822504301465A48FEF7D9FA2E
:101C000000205549088050480760601E00014F4978
:101C100040184480601E000140188680601E00014C
:101C20004018C780464903C9621E1201474BD218AB
:101C3000D1609060AA21601E00011A46115278E01E
:101C4000FFE7002572E02820684346494018808855
:101C5000B0422BD1282068434018C088B84225D113
:101C6000282068434018C078611E01228A40104332
:101C7000C1B2282068433B4A8018C170304903C96B
:101C800028226A43374BD2180832631EDB00D21871
:101C900003C22820684333494018807800990843DC
:101CA000282169432F4A8918887041E02820684319
:101CB0002C4940188088002836D1282068434018D5
:101CC0008680282068434018C78028206843401831
:101CD000C078611E01228A401043C1B228206843A7
:101CE000204A8018C170164903C928226A431D4B37
:101CF000D2180832631EDB00D21803C2BB21282091
:101D00006843184A115228206843114640188078C9
:101D10000099084328216943891888700E48008873
:101D2000401C0D49088003E0681CC5B20A2D8ADBFF
:101D300000BF0020F8BD000021000020480900205D
:101D400018000020DE000020E000002038100020F5
:101D5000C400002028100020E4000020FBFB00004D
:101D6000E6000020781000200FB410B503A9044B42
:101D7000044A029800F0FAF810BC08BC04B01847F6
:101D8000013000088402002030B47446641E2578B7
:101D9000641CAB4204D3635D5B00E31830BC18479E
:101DA0001D46F8E702E008C8121F08C1002AFAD150
:101DB00070477047002001E001C1121F002AFBD1CB
:101DC000704710B5002202212C2001F096F8022263
:101DD00011462C2001F091F810BD000010B504460A
:101DE0006D2209492E2001F088F8002C05D0074A01
:101DF00007492E2001F05FF804E0064A04492E202E
:101E000001F059F810BD00000608000007060000A8
:101E1000061800000716000010B5002000F006F8B4
:101E200000220421362001F046F810BD38B50446E2
:101E30006B4602220021362000F052FE2300FFF7FD
:101E4000A3FF0F12091B5B5B5B5B24325B5B3E45B0
:101E50004C555B000021684601704078FE21084027
:101E60006946487049E069460878FC21084001212C
:101E700008436946087040E069460878FC2108403C
:101E8000022108436946087037E068460078B321AC
:101E9000084048210143684601704078802108438A
:101EA0006946487029E068460178B32001406846D9
:101EB000017040784106490E684641701DE0694650
:101EC0004878022108436946487016E06946487818
:101ED000FD210840694648700FE069460878CF2127
:101EE0000840202108436946087006E00121684641
:101EF00001700321417000E000BF00BF6B4601226A
:101F00000021362001F003F800AB01330122114615
:101F1000362000F0FCFF38BD10B50E20FFF786FF1D
:101F20000122D20306212D2000F0C5FF012000F080
:101F300073FA0120FFF77AFF10BD70B50446A2B214
:101F400004212D2000F0B7FF032206212D2000F0F0
:101F5000D4FF002206212D2000F0CFFF0A212D20E2
:101F600000F097FD0546284670BD0000FFB591B012
:101F70000F460546002606E025280AD0149A139934
:101F800090476D1C761C28780028F5D1304615B096
:101F9000F0BD002400940121F34A029400E00443C0
:101FA0006D1C2B780846203B98401042F7D12878CA
:101FB0002A280ED0022128780246303A092A15D85C
:101FC000009A0A235A43303A80180C436D1C009043
:101FD000F1E701CF0090002805DA01204003044317
:101FE000009840420090022004436D1C28782E285F
:101FF00015D10420044368786D1C2A280AD101CF2A
:102000006D1C02900BE002990A22514330394018AE
:102010006D1C02902878014630390929F3D92878B7
:102020006C2810D006DC4C281AD068280ED06A28FC
:1020300017D104E0742813D07A2812D110E00120BF
:10204000400504430CE00121090501E003210905D5
:102050000C436978814203D10120000524186D1CCE
:102060006D1C287803906E281ED00CDC632831D0BC
:1020700004DC00288AD0582811D1B2E064287BD033
:1020800069280CD178E073282DD004DC6F2870D03B
:10209000702804D1A7E075286CD078286BD0149AEA
:1020A00013999047761C62E06002400F022807D027
:1020B00003280AD0042838680AD006603F1D56E07D
:1020C0003868F11706604160F8E738680680F5E780
:1020D0000670F3E73878694608740020487404A84D
:1020E0000390012003E0386803900020C0433F1DA7
:1020F00061070FD5002101E00199491C029A019165
:10210000914213DA8142F7DB019A0399895C002935
:10211000F2D10BE0002101E00199491C01918142BB
:10212000FADB019A0399895C0029F5D1019900989D
:10213000139A401A00902146149B00F03BF9019934
:102140008019461807E0039803990078491C039109
:10215000149A139990470198401E0190401CF2D1A7
:102160002146149B139A009800F014F986196D1CEF
:1021700009E741E033E034E00A20002104900591B2
:102180006002410F022905D001CFC21794460329EE
:1021900005D007E0FF1DFF08FF0003CF06E000B2F7
:1021A000C2179446042902D140B2C1178C460022BE
:1021B0006146944506DA0A460021404291418C4628
:1021C0002D2102E0210504D52B216A46117601213B
:1021D00003E0E10701D02021F7E7019154E00A2054
:1021E0000BE0102009E0102004900021042004439B
:1021F00008200591029003E0082000210591049039
:102200006002410F022905D001CF00229446032924
:1022100006D006E0FF1DFF08FF0003CF8C4603E059
:1022200080B2042900D1C0B20021019121072BD531
:102230000399702906D0049A1021059B4A401A433D
:1022400005D00EE040216A461176012108E0614682
:10225000014306D030216A46117603995176022156
:102260000191049A0821059B4A401A430CD161460A
:10227000014301D1610707D530216A46117601215A
:1022800001910299491E02910399582904D037A15E
:1022900003910FA90F910DE039A1F9E76146059B64
:1022A000049AFDF791FF039B8C469B5C0F9A521E8C
:1022B0000F92137061460143F0D10F9807A9081AD5
:1022C00020300390600704D5012000048443029865
:1022D00001E0012002900399884201DD401A00E0EC
:1022E000002041180290019809180098401A0090A7
:1022F000E00306D42146149B139A009800F05AF884
:1023000086190020049008E006A9085C149A139925
:1023100090470498401C761C049001998842F3DB96
:10232000E0030CD52146149B139A009800F042F864
:10233000861904E0149A302013999047761C02996C
:10234000481E02900029F5DC08E00F980F990078EC
:10235000491C0F91149A13999047761C0399481EB3
:1023600003900029F1DCFBE609280100303132330B
:1023700034353637383961626364656600000000C1
:1023800030313233343536373839414243444546AB
:1023900000000000F8B5044600251E4617468804D4
:1023A00004D405E039462020B0476D1C641EF9D5E1
:1023B0002846F8BDFFB50446002581B01E46C80377
:1023C00001D5302700E02027880404D505E03846F1
:1023D0000399B0476D1C641EF9D5284605B0F0BDC1
:1023E00070B50B4C201F4088401C85B2FDF7FAFFEA
:1023F00003E02078641CFDF7C5FF2846691E8DB2F6
:102400000028F6D1FDF7D8FF0249087070BD000022
:102410002C100020E600002010B504462046FEF7F0
:10242000D1F910BD002800D062B670470120002805
:1024300000D072B67047000010B57D2189011048A8
:102440000068FDF773FE0446601E0E49884201D9FC
:1024500001200CE0601E0C4948610021481EFEF777
:102460002DFC002008498861072008610020002811
:1024700001D000BFFEE70420C043FEF72DFF10BDD2
:1024800000010020FFFFFF0000E000E000B585B084
:1024900001210846FEF782FC01214804FEF75EFC9C
:1024A0000120000303900021684601740221C174D9
:1024B0000321417403A90920C006FEF763FA0C2129
:1024C0000020FEF7A7FE01200003019000216846CE
:1024D0000172082141720121817201A8FEF70EFAF2
:1024E000072168460170012141708170FEF7AEFB43
:1024F00005B000BDFEB504462578607940007E49F0
:10250000085A01906078401EC6B2042D01D0072DF4
:1025100001D1012000E000200090E07900280AD1DC
:10252000764840690121890508437449486101984A
:10253000C010019006E07148406901218905884377
:102540006E494861207A6D49087208464069032146
:10255000090488436949486108464069217A0904A9
:1025600003221204114008436449486108460021CF
:102570004269042000F0AEFC61492E20019A00F06F
:102580009AFC3046FFF72AFC5E48405D80005E49B9
:102590000A5807212B2000F09DFC5A48405D5B49FA
:1025A0000A5C0B212B2000F0A8FC594900980A5C1A
:1025B0000B21282000F0A1FC5248405D80005549C5
:1025C0000A580C21282000F085FCE079800052494F
:1025D0004018A1794900425A0221272000F06BFCE3
:1025E00070004E490A5A0421272000F064FCE0796B
:1025F000002805D164220621272000F05CFC17E0AA
:10260000A07804280AD110220621272000F053FCCC
:1026100010222621272000F070FC09E0202206214C
:10262000272000F048FC28222621272000F065FC06
:1026300030013B494018E1788900425808212720A1
:1026400000F048FC6089002801D136486081628929
:102650002021272000F02FFC33480C210268232082
:1026600000F038FC71003048001D425A042123203C
:1026700000F021FCA079002806D0E0792B490A5C03
:102680000021212000F039FC2807000F2901F02249
:1026900011400843617889040322920411400843E1
:1026A000A179490401225204114008432179890586
:1026B0001F229205114008436179C906C90EC90657
:1026C000084307463A4600211F2000F003FCA0788B
:1026D000617808430004E179490308430749C86069
:1026E00008460021C268082000F0F4FB42220021C5
:1026F0000D2000F002FCFEBD5C4A0008081200201C
:1027000004280000E0490008004A0008184A0008B0
:102710001E4A0008E84900082C4A0008384A000808
:102720003C4A000841100000204A0008284A0008DE
:1027300010B50446224603211A2000F0DEFB0748AC
:10274000406901218907084304494861084600217E
:102750004269042000F0BEFB10BD000008120020FA
:1027600070B505460021042000F093F90C4908409B
:102770000446002D09D0FF21FF312046884304463E
:1027800028460840401C044301E0640864000548F2
:10279000446122460021042000F09CFB70BD000033
:1027A000FFFF47F00812002070B500210E2000F056
:1027B00070F90546FFF73AFE0446002211460E2046
:1027C00000F088FB402200210D2000F096FB094A12
:1027D00000210F2000F07EFB00F05AFB2A4600216A
:1027E0000E2000F077FB2046FFF71CFE0020024978
:1027F000887670BDF8FF272408120020F8B504463B
:102800000025002700203A494874887608838862AA
:10281000C8620863486300F05DF93649884201D018
:102820008817F8BD00F0D2FA0020FFF7FFFA042263
:102830000021242000F061FB1E20FFF77EFB85B203
:1028400028122B4948720420FFF777FB0746F8B29D
:1028500000280BD0022212212D2000F04EFB24482C
:10286000008B012109030843214908830620FFF753
:1028700064FB1F4908600720FFF75FFB1C494860A5
:10288000E806C00E08740846007C002801D110201C
:1028900008741749087C00F08BFAE007C00F002885
:1028A00009D0FFF739FB1248008B0121C902084308
:1028B0000F4908830CE00521362000F0D7F80646C2
:1028C0000D48064032460521362000F0F4FA00BFDC
:1028D0000120FFF7ABFA00220A212C2000F00DFBAB
:1028E0000021042000F0D5F801494861002098E754
:1028F000081200203001CADEFFFD000070B5002183
:102900000F2000F0C6F857490446C8610120800333
:102910002040002855D06F22120200210F2000F025
:10292000D9FA00214F481C300172102000F09EF8A7
:102930000546AE05B60D4B48007A002801D1760653
:10294000760E484806840120C0032840002807D09E
:1029500044481C30007A0121084342491C31087266
:10296000404B223302220021112000F0B9F8082048
:102970002040002813D03B481C308079202108409B
:1029800000280CD1082200210F2000F0A3FA3548BE
:10299000C069082188433349C861002088763148DE
:1029A000C06A002803D02F48C16A1C3088472D48D0
:1029B000407C002804D0012203210D2000F09DFA64
:1029C00000BF80202040002818D0F82200210F20CE
:1029D00000F080FA08202040002807D02148807E9F
:1029E000002803D0FFF7E0FE00F0FAF81D48806AE7
:1029F000002803D01B48816A1C30884711204004FE
:102A00002040002814D00122520400210F2000F0A1
:102A100061FA002013498876FFF7C6FE00F0E0F85F
:102A20001048006B002803D00E48016B1C3088470B
:102A30000D482040002813D00B4A00210F2000F041
:102A400049FA002007498876FFF7AEFE00F0C8F883
:102A50000448406B002803D00248416B1C30884773
:102A600070BD00000812002000900524F8B504464F
:102A70000D460026A9B2A0B26B46022200F030F843
:102A800068464078010268460078081886B23046E9
:102A9000F8BDF8B505460E460027B1B2A8B26B46A0
:102AA000042200F01DF8032404E038026946095DA1
:102AB0004718641E002CF8DA3846F8BD38B50446CD
:102AC0000D46A9B2A0B26B46012200F009F8684693
:102AD000007838BD10B500210846FFF7DAFF10BDB9
:102AE000FFB581B006460C4617460025002C04D1E0
:102AF00029466D1C684646541AE040203043C2B255
:102B000029466D1C684642547F2C04DC28466D1C07
:102B100069460C540CE0E0B28021084329466D1C44
:102B20006A4650546004020E28466D1C69460A54D9
:102B3000A8B23A466946049B00F018FC05B0F0BD07
:102B400070B504460D46164623462A4631461120E6
:102B5000FFF7C6FF70BD10B50446234605220021CD
:102B60001520FFF7BDFF10BD10B504462346052212
:102B700000211720FFF7B4FF10BD70B504460420F4
:102B80002040002801D100F083F9FF250135E0073E
:102B9000C00F002801D0680005432A4600210D20FF
:102BA00000F089F9E007C00F002817D003210F209B
:102BB000FFF784FF06460820304000280ED0FFF7BC
:102BC000F3FD02202040002805D1FF220132002120
:102BD0000D2000F070F90020C04370BD0020FCE71C
:102BE00010B5E0220321362000F087F9F0220321FE
:102BF000362000F082F910BD10B5044622460021AF
:102C0000032000F058F910BD10B5034CA062E1623A
:102C10002263636310BD00000812002010B5044653
:102C2000224601210A2000F055F910BD10B50446D6
:102C3000234608220021012000F069F910BDF8B5F3
:102C400004460E46FFF7F2FB074600210E20FFF771
:102C500020FF0546002E03D028462043054602E00B
:102C60002846A04305462A4600210E2000F032F9EE
:102C70003846FFF7D7FBF8BD70B50546E807C00F2B
:102C800000283BD000212620FFF703FF04460F2138
:102C900089022046884304460520800204432246D8
:102CA0000021262000F016F900213620FFF7F1FE62
:102CB000044621208004044322460021362000F0EF
:102CC00009F9FF24113402202840002802D00F20E7
:102CD0000004044322462821362000F0FBF802209D
:102CE0002840002819D00F210904204688430446B3
:102CF00022462821362000F0EDF80EE000212620A3
:102D0000FFF7C7FE04460F21890220468843044688
:102D100022460021262000F0DDF870BD10B50446E3
:102D200022460221032000F0C6F810BD10B504466B
:102D3000224602492E2000F0BEF810BD0418000003
:102D400070B5044603210420FFF7B8FE0546002CA9
:102D500013DD224600210C2000F0ADF810200543C1
:102D60000E4840690121090708430C4948612A4679
:102D70000321042000F0C1F80EE01021284688430A
:102D800005460648406909068843044948612A46C1
:102D90000321042000F0B1F870BD000008120020EB
:102DA00010B5044622460021182000F084F810BD1A
:102DB00070B50446E006C00E6021084305462A4669
:102DC0000E212B2000F099F870BD000010B5FFF720
:102DD00023F8002211462C2000F06DF80022062175
:102DE0002C2000F08AF8FEF7ECFF002203213620A9
:102DF00000F083F80120FFF70FFBF02203213620BB
:102E000000F07BF800200149887610BD08120020F0
:102E1000F8B504460026002500270220204000289F
:102E200008D080252A4600210D2000F066F80120F8
:102E300016498876E007C00F00281DD006200543FC
:102E40002A4600210D2000F058F803210F20FFF73B
:102E50000DFE07468120C0003840002801D1002621
:102E600011E040252A4600210D2000F046F8002000
:102E700006498876461E06E0022005432A460021C0
:102E80000D2000F03AF83046F8BD0000081200208E
:102E900010B503210F20FFF711FE044680202040CB
:102EA000402121404900884204D0012203210D2005
:102EB00000F023F810BDF8B505460E4614466846E6
:102EC000047021124170B1B2A8B26B46022200F028
:102ED0001EF8F8BDF8B506460F461446002503E077
:102EE00069464C55240A6D1C042DF9DBB9B2B0B209
:102EF0006B46042200F00BF8F8BD37B504460D46CA
:102F0000A9B2A0B202AB012200F001F83EBDFFB5AC
:102F100081B006460C4617460025002C07D18020BC
:102F20003043C2B228466D1C69460A5419E0C020DD
:102F30003043C2B228466D1C69460A547F2C03DC1C
:102F400028466D1C0C540CE0E0B280210843294651
:102F50006D1C6A4650546004020E28466D1C69467A
:102F60000A54A8B23A466946049B01F0E9FC05B050
:102F7000F0BD70B504460E46154628190121890298
:102F8000884207DCA21E334629460920FFF7BFFF0F
:102F9000002070BD0020C043FBE70000F8B50446E8
:102FA0000D4616460648C0682043A9050843F103AC
:102FB000084307463A4600210820FFF78BFFF8BD7B
:102FC0000812002030B5024600250D604D600B460A
:102FD000002003E0145C1C705B1C401C0528F9DB1E
:102FE00030BD70B50146002006E00A541E06140AE2
:102FF00034431B0A2246401C0528F6DB70BD000046
:1030000070B504460D4600BF40210948FEF7F8FBA5
:103010000028F9D0E1B20648FEF7C5FC00BF402108
:103020000348FEF7EDFB0028F9D0204670BD0000F4
:10303000003801407CB5044600200190012504269B
:103040006B46324601A9284600F090F96846015DBA
:1030500001A0FEF789FE7CBD25640D0A000000007A
:1030600070B5054600210F20FFF713FD04462146E9
:1030700001A0FEF779FE70BD3078256C780D0A004E
:103080007CB500210C460D466846FFF764FD04261A
:1030900008E0220E28021043240205466846805D9F
:1030A0000443761E002EF4DA204629467CBD7CB50A
:1030B00000210C460D466846FFF756FD042608E041
:1030C000220E28021043240205466846805D044310
:1030D000761E002EF4DA204629467CBD10B5034842
:1030E000016803A0FEF740FE10BD0000E8000020CC
:1030F00074696D653D256400FDF78AF9FDF7BCFC38
:10310000FFF79AF9FEF71AFB4F48416830208847CD
:1031100000F05CFA00F070F9FDF7B8FF00F0DAF8A3
:10312000FDF7DEFC002803D048A0FEF71DFE02E0FC
:103130004CA0FEF719FE0120FFF760FB401C0028A1
:1031400004D14DA0FEF710FE00BFFEE7FFF79EF989
:10315000FFF76CF9044600F011FA4B48FFF7CAF983
:103160000120FFF789FD494800F0ECF82046FFF701
:1031700059F94748FFF7DAFD4548FFF711FE454A80
:1031800000210F20FFF7A6FE01214348FFF757FD5E
:10319000424B434A43494448FFF736FD43480088C1
:1031A000FFF7BCFD4248FFF741FD42480088FFF7AA
:1031B00023FD1820FFF7D4FA0520FFF7B9FA002005
:1031C000FFF7BEFDFDF7CAF90020FFF7D6FC3AE095
:1031D00035E0394800789021484338494018407A12
:1031E0002B2810D004DC102813D01A2814D10DE09D
:1031F000802802D081280FD102E0FEF7D9FB0FE032
:10320000FEF7D6FB0CE0FDF76DF809E0FEF7EAF9F2
:1032100006E0FDF7F7F903E029A0FEF7A5FD00BFE2
:1032200000BF0A2124480078401CFCF795FFC8B273
:103230002149087026480078401E25490870244816
:1032400000780028C5D1C3E7900100200D0A203284
:10325000344C3031206E6F742065786973740D0AB8
:10326000000000000D0A2032344C303120636865C4
:10327000636B206F6B0D0A00494E4954204641494B
:103280004C45440D0A000000AC000020FD28000859
:103290006F4000000040800080D023244D3400089F
:1032A0007135000859340008A5370008B80000201F
:1032B000BA000020C20000202100002048090020A0
:1032C000554E6B6E6F7720636D640D0A0000000031
:1032D0002200002000B585B001210846FDF75EFD03
:1032E00001218804FDF73AFD0B210120FDF792FF33
:1032F0000120C00203900021684601740121C174BD
:1033000003A90F48FDF73EFB0B210120FDF782FFCB
:103310000120C00201900021684601720C21417217
:103320000121817201A8FDF7E9FA072168460170C1
:103330000321417001218170FDF788FC05B000BDBB
:1033400000040048014908607047000004000020A4
:1033500070B50546FFF7BEFB0446214601A0FEF707
:1033600003FD70BD256C780D0A000000FFB581B02B
:1033700006460F461D460024FFF758F8009001212D
:1033800009031B48FDF772FB00BF0FE0395D1948C8
:10339000FDF73AFF00BF01211648FDF741FE002866
:1033A000F9D01448FDF720FF2870641CB442EDDB0F
:1033B00000240FE000210F48FDF726FF00BF012188
:1033C0000C48FDF72DFE0028F9D00A48FDF70CFF48
:1033D0002855641C03988442ECD30098FFF722F828
:1033E000012109030248FDF743FB002005B0F0BDB1
:1033F00000040048003800401CB502200090012164
:103400006846017103214171002181710221C1715E
:1034100069460D48FDF7B6FA02210B48FDF726FB79
:103420000120FDF7CFF902200090002168460171CC
:10343000032141710021C17169460348FDF7A2FAD9
:103440000520FDF7BFF91CBD0008004810B5044673
:103450000020FFF792FB10BD70B504460026A5883A
:103460007F2D72DCA079022806D1E079002803D1F3
:1034700001203849087068E00821206808400028C9
:1034800011D000BF00210F20FFF703FB802108406F
:103490000028F7D0802200210F20FFF71BFDFFF747
:1034A00083F9FFF79DFB01202B4908702B4800781A
:1034B000002816D02A49097890225143294A8818B1
:1034C00000222946FFF73CFBFFF7DAFD244A127879
:1034D00090235A43234BD218802398508032516056
:1034E00030E0214800780A282CDC20490978902215
:1034F00051431C4A881800222946FFF721FB1B482C
:1035000000789021484317494018407A80280BD111
:10351000FFF7B6FD154A127890235A43114BD21883
:1035200080239850803251600A2110480078401C56
:10353000FCF712FEC8B20D4908700B480078401C19
:10354000094908700020044908700020FFF715FBA6
:1035500070BD00002400002026000020280000206C
:103560002100002048090020220000202000002027
:103570000121014A117070472500002000B585B077
:1035800000211148FDF73EFD002168460180FF2122
:10359000053141800721090281800021C18001811C
:1035A000012149024181102181810021C18107212E
:1035B000018269460448FDF73DFD01210248FDF7FF
:1035C00021FD05B000BD00000038004000B587B007
:1035D00001218804FDF7C2FB01218803FDF7CEFB22
:1035E00000220D212A48FDF715FA00220E21284855
:1035F000FDF710FA00220F212548FDF70BFA0720EE
:1036000040030090022168460171032141710021AD
:1036100081710121C17169461D48FDF7B3F900218F
:1036200068460181FF21053141810721090281811D
:103630000021C18101820121490241823821818218
:103640000021C1820721018302A91248FDF7F2FC83
:10365000012109030F48FDF7CDFD01210D48FDF7BC
:10366000D1FC012000030090012168460171032173
:103670004171002181710221C17169460448FDF741
:1036800081F9012109030248FDF7F2F907B000BDF5
:10369000000400480038004010B504460B480C49AF
:1036A00088622046282148434C300949086201209D
:1036B00008490870012106481C30FCF7E3FE01228E
:1036C00080210548FEF792F810BD00002810002068
:1036D00000000240C40000200038014000B585B061
:1036E00014220CA16846FCF74BFDFFF75DF80022A1
:1036F00069461320FFF73DFC012200211320FFF74C
:103700004DFC09A0FEF730FB0220FFF781FB05B05E
:1037100000BD0000618800CADE01000200A10200B5
:10372000AC2E9D7D3D0000007465737466756E312E
:10373000206578656375746564210D0A00000000DA
:1037400000B585B014220CA16846FCF719FDFFF7FF
:103750002BF8002269460C20FFF70BFC0122002108
:103760000C20FFF71BFC09A0FEF7FEFA0220FFF772
:103770004FFB05B000BD0000418800CADEFFFF011D
:1037800000A00000AC2E9D7D3D00000074657374A8
:1037900066756E32206578656375746564210D0AFF
:1037A000000000000121014A117070472300002031
:1037B00010B5044601A0FEF7D7FA10BD4368697042
:1037C0002077696C6C206578706C6F646520696E19
:1037D00020332073656373212121000030B595B03B
:1037E000054613AB12AA09A9284600F055FA04466B
:1037F000002C02D0204615B030BD0020149027E0E8
:103800002249096810AA127CD200891813AB11AAA8
:10381000486801A900F040FA0446002C01D0204677
:10382000E9E709A901A800F0E6FC00280BD110A8DF
:103830000179007A814201DD0220DCE710A8007CDA
:10384000124988750AE010A8007C401CC1B214918E
:103850000E48007D10A9097C8842D1DC00BF0B48CE
:10386000007D10A9097C884201D10420C3E714A976
:10387000284600F0FDFA0446002C01D02046BAE7A5
:1038800010A8007C014948750020B4E79001002091
:10389000F0B59DB0A648847D007DA04201DC1DB03E
:1038A000F0BDA3490968E200891809AB0AAA486873
:1038B0000BA900F0F1F90BA99EA0FEF755FA00261E
:1038C00045E09B48008B0121B140084000281BD0F7
:1038D00022219AA0FEF748FA304600F051FB9449A5
:1038E00024314718394696A0FEF73EFA222193A0CC
:1038F000FEF73AFA304600F043FB8D492431401878
:10390000B10013AA505018E0304600F039FB884946
:1039100024310858B10013AA50508548C07D0028B2
:1039200005D1B000115887A0FEF71EFA05E0B000DF
:1039300013AA115884A0FEF717FA08A8007A401EAF
:10394000B04202D082A0FEF70FFA701CC6B208A8DF
:10395000007A8642B5DB7FA0FEF706FA00F05EFB38
:103960007348407D0300FEF70FFA0B070E161F2A5F
:103970003746586C8299B1006D490968E200885851
:1039800080470546A2E06A4A1268E300D1581398BE
:10399000884705469AE0664B1B68E700DA59149998
:1039A00013989047054691E061490968E700CB59B3
:1039B000159A1499089113989847054686E05C4932
:1039C0000968E700C959079114A90EC90891079F12
:1039D0001398B847054679E01798554B00901B6837
:1039E000E700DB590793169B0893079F13A807C8A6
:1039F000B84705466AE0189917984D4A019100901A
:103A00001268E300D758169A0892159A0792089BF5
:103A100014991398B847054658E0189A19991798B9
:103A2000019202910090424A1268E700D25907922F
:103A3000169B159A0892079F14991398B847054644
:103A400044E0189B179A19991A98019300920291D1
:103A50000390374A1268E700D2590792169B159ACD
:103A60000892079F14991398B84705462EE0199BB2
:103A70001B9A18991A98029304920191039017982F
:103A800000902B480068E100475814A80DC8089022
:103A9000139807900899B847054617E01A9B1B9A98
:103AA0001C991998039304920591029018991798FC
:103AB000019100901E480068E700C059079013A8C4
:103AC0000FC80890079FB847054600BF00BF00F029
:103AD00067FA08A8007901280DD11548C07D002893
:103AE00004D129461CA0FEF73FF907E029461CA097
:103AF000FEF73AF902E019A0FEF736F90C48E0307B
:103B0000007B002812D00A498031086F0A21FCF797
:103B10000DFB0F4606498031086F0A21FCF706FBB2
:103B20003A460146089011A0FEF71EF900BFB6E61E
:103B3000900100200D0A2573280000002563000075
:103B400025730000256C75003058255800000000D2
:103B50002C000000290000003D256C753B0D0A007B
:103B60003D305825583B0D0A0000000046756E6335
:103B700074696F6E2052756E2054696D653A2564C4
:103B80002E2531646D730D0A00000000F0B5034668
:103B9000154600200022002600245CE01F782C2F10
:103BA00002D1002C00D101221F78292F02D01F78CA
:103BB000002F02D1002C00D14EE0002E36D11F780C
:103BC000302F02DB1F78392F11DD1F78612F02DBC8
:103BD0001F78662F0BDD1F78412F02DB1F78462FE1
:103BE00005DD1F78582F02D01F78782F0DD1002ABD
:103BF00000D031E01F78612F03DB1F78203F0F706A
:103C000001E01F780F70491C22E01F78222F05D198
:103C1000002A00D020E00126012419E01F78202F7F
:103C200016D01F782C2F13D0FF2615E01F78222FD7
:103C300000D10024002A00D00EE0002C08D01F780C
:103C40005C2F02D15B1C471CF8B21F780F70491C17
:103C5000471CF8B25B1CA1E700BF00270F702E7055
:103C6000F0BD10B50446002010700BE020780870FD
:103C7000641C491C1078401C10701078984201DBBD
:103C8000012010BD2078202802D020780028EDD116
:103C90000020087000BFF4E7FFB587B000270020C0
:103CA0000590049001200390002000900025079CBF
:103CB0001EE02078202817D06806400E052813DA69
:103CC000002D01D1802005436806400E042803D151
:103CD00020782A2800D00EE020786906490E01AA33
:103CE0005054681CC5B202E0852D00D103E0641C6D
:103CF00020780028DDD100BF002D12D000206906F9
:103D0000490E01AA505458A101A800F074FA0028E5
:103D100003D100210A98017002E001210A98017084
:103D2000002500200690079C14E0641C0698401CA7
:103D3000C0B206902078202802D020782A2809D105
:103D4000204600F0E5F90646282E03D02A2E01D0A1
:103D5000069805902078282802D020780028E4D101
:103D6000079C0598002802D00598401C24180020C4
:103D7000069000265EE02078002802D101200690FF
:103D800059E02078282804D1002E02D1781CC7B22F
:103D900017E0207829280BD1002E09D1002F02D05E
:103DA000781EC7B201E001200690002F09D142E041
:103DB0002078222805D1002E01D1012000E000202A
:103DC0000646002F09D12078202832D02178089883
:103DD00001700898401C08902BE020782C2804D112
:103DE00001200390681CC5B216E02078202813D06B
:103DF0002078282810D0002D0AD10098052807DA4D
:103E0000217801AA009811540098401CC0B200907B
:103E10000398401CC0B20390012F0AD103980228D6
:103E200007D10398401CC0B203900498401CC0B254
:103E30000490641C9FE700BF049801280AD1002168
:103E400001AA0098115408A101A800F0D4F9002893
:103E500000D1049009990498087000210898017015
:103E600006980BB0F0BD0000766F6964000000009A
:103E7000F0B5B7B005460F460024002604E0002147
:103E80003E488155701CC6B20A2EF8DB06E06D1C58
:103E90002878002802D1012037B0F0BD28782828E2
:103EA000F5D16D1C64E036AA01A92846FFF76EFE25
:103EB0000646AD1930A8007E002804D0012829D07C
:103EC000FF284DD14AE068460079002821D035A965
:103ED00001A800F028F90646002E01D00220DBE7F9
:103EE000204600F04DF825490A31359A0A50084617
:103EF0002438008B0121A140884320491A390883C6
:103F000004211E480155601CC4B20A2C01DD0320A7
:103F1000C2E725E001A800F08CF9401CC0B2349043
:103F2000204600F02DF815490A314018014600904E
:103F300001A800F072F911481A38008B0121A14044
:103F400008430E491A3908831A3134980855601C01
:103F5000C4B20A2C01DD03209EE701E002209BE7AA
:103F600000BF2878292802D02878002800D100E056
:103F700099E700BF3C7000208EE70000AA010020F6
:103F800002460020002105E0044B5B5C1B18D8B200
:103F90004B1CD9B29142F7DB70470000AA01002008
:103FA00010B501210A48FDF7B4FA012805D10948E6
:103FB000006F09494118074801670548FDF7A6FA4F
:103FC0000449096F411803480167006F10BD0000E4
:103FD0000020004010020020FFFF000010B5044642
:103FE000204664225043401E81B27D20C000FDF770
:103FF00027FB01200149C87510BD00009001002079
:1040000010B50246012002E00346534318460B4612
:104010004C1EE1B2002BF7D110BD000010B50121FC
:104020000748FDF75FFA07490548FDF799FA0021AF
:104030000348FDF797FA00210348016710BD00000F
:1040400000200040FFFF00001002002070B51F4854
:1040500000880121C9030840002835D01B48057895
:1040600000201B4948551B48816819488847044669
:10407000002C03D11749C868804722E0144800F09B
:10408000E5F80546012D00D02C46002C19D0012C56
:1040900006D0022C08D0032C0AD0042C10D10BE03F
:1040A0000DA0FDF761FE0BE00EA0FDF75DFE07E041
:1040B0000FA0FDF759FE03E010A0FDF755FE00BF6D
:1040C00000BF00200149088070BD000000000020F2
:1040D0008802002090010020BAAFCAFDB4EDCEF3F3
:1040E000210D0A00B2CECAFDB4EDCEF3210D0A00B7
:1040F000B2CECAFDCCABB6E0210D0A00CEB4D5D20B
:10410000B5BDC6A5C5E4B5C4BAAFCAFD210D0A0048
:104110000146491C00E0491C0878202801D10029EB
:10412000F9D108787047FCB507460E4600250A20ED
:1041300000903C46002030601FE02078392802DCE7
:10414000207830280ADA2078462802DC20784128B6
:1041500004DA2078582809D1012D07D12078412888
:1041600001DB10200090681CC5B205E02078002813
:1041700000D103E00120FCBD641CDEE700BF3C462B
:10418000009810280FD1032D01DA0220F3E72078E0
:10419000302806D16078582803D1A41CA81EC5B2C7
:1041A00005E00320E7E7002D01D10420E3E71EE04E
:1041B000002D01D0681EC5B22078392806DC207891
:1041C000302803DB20783038019002E0207837383F
:1041D000019029460098FFF713FF01994843316881
:1041E00040183060641C2078002800D100E0DFE730
:1041F00000BF0020BFE702460BE010780B78984222
:1042000001D0012070471078002800D102E0521C34
:10421000491CF2E700BF0020F4E707E002780A70CB
:104220000278002A00D102E0401C491CF6E700BFDA
:1042300070470146002006E00A78002A00D103E01A
:10424000421CD0B2491CF7E700BF704710B58CB0D4
:1042500004461E230BAA03A92046FFF702FD009087
:104260000098002802D001200CB010BD08A8007BE7
:10427000241800210B910FE008A8007B80003F4A22
:10428000115803A8FFF7B7FF002800D108E008A8DD
:10429000007B401CC1B20B9108A8007B0728EBD320
:1042A00000BF08A8007B0300FDF76EFD0705063D73
:1042B0005F666564630000BF31A0FDF755FD31A066
:1042C000FDF752FD3FA0FDF74FFD4EA0FDF74CFD61
:1042D0005CA0FDF749FD6BA0FDF746FD79A0FDF759
:1042E00043FD86A0FDF740FD8BA0FDF73DFD90A0AE
:1042F000FDF73AFD94A0FDF737FD99A0FDF734FDD9
:104300009EA0FDF731FDA4A0FDF72EFDB0A0FDF7A6
:104310002BFDBDA0FDF728FDC8A0FDF725FDD4A00D
:10432000FDF722FD9EE216A0FDF71EFDE0A0FDF7C1
:104330001BFD00200B900EE0ED48026808A8007BF2
:10434000C00010184168EBA0FDF70EFD08A8007B27
:10435000401CC1B20B91E648007D08A9097B884248
:10436000EADC07A0FDF700FD7CE205A0FDF7FCFC00
:10437000C4E175E247E219E2EBE10000140100201C
:104380000D0A00002D2D2D2D2D2D2D2D2D2D2D2DFA
:104390002D2D2D2D2D2D2D2D2D2D2D2D55534D41CB
:1043A00052542056332E312D2D2D2D2D2D2D2D2DCA
:1043B0002D2D2D2D2D2D2D2D2D2D2D2D2D2D2D203A
:1043C0000D0A00002020202055534D415254CAC7E9
:1043D000D3C9414C49454E54454BBFAAB7A2B5C4B9
:1043E000D2BBB8F6C1E9C7C9B5C4B4AEBFDAB5F738
:1043F000CAD4BBA5BDBBD7E9BCFE2CCDA8B9FD2056
:104400000D0A0000CBFC2CC4E3BFC9D2D4CDA8B99F
:10441000FDB4AEBFDAD6FACAD6B5F7D3C3B3CCD0A3
:10442000F2C0EFC3E6B5C4C8CEBACEBAAFCAFD2C4F
:10443000B2A2D6B4D0D02ED2F2B4CB2CC4E3BFC932
:104440000D0A0000D2D4CBE6D2E2B8FCB8C4BAAFB1
:10445000CAFDB5C4CAE4C8EBB2CECAFD28D6A7B31C
:10446000D6CAFDD7D62831302F3136BDF8D6C62969
:10447000A1A2D7D6B7FBB4AEA1A2BAAFCAFDC8EB12
:104480000D0A0000BFDAB5D8D6B7B5C8D7F7CEAA9F
:10449000B2CECAFD292CB5A5B8F6BAAFCAFDD7EE83
:1044A000B6E0D6A7B3D63130B8F6CAE4C8EBB2CE80
:1044B000CAFD2CB2A2D6A7B3D6BAAFCAFDB7B520F3
:1044C0000D0A0000BBD8D6B5CFD4CABE2ED0C2D4F8
:1044D000F6B2CECAFDCFD4CABEBDF8D6C6C9E8D69C
:1044E000C3B9A6C4DC2CD0C2D4F6BDF8D6C6D7AAB0
:1044F000BBBBB9A6C4DC2E0D0A000000BCBCCAF5CB
:10450000D6A7B3D63A7777772E6F70656E656476E7
:104510002E636F6D0D0A000055534D415254D3D098
:1045200037B8F6CFB5CDB3C3FCC1EE3A0D0A0000E3
:104530003F3A202020202020BBF1C8A1B0EFD6FABE
:10454000D0C5CFA20D0A000068656C703A2020200B
:10455000BBF1C8A1B0EFD6FAD0C5CFA20D0A0000BA
:104560006C6973743A202020BFC9D3C3B5C4BAAFF5
:10457000CAFDC1D0B1ED0D0A0A00000069643A20FD
:1045800020202020BFC9D3C3BAAFCAFDB5C4494457
:10459000C1D0B1ED0D0A0A006865783A20202020CC
:1045A000B2CECAFD3136BDF8D6C6CFD4CABE2CBAFB
:1045B000F3B8FABFD5B8F12BCAFDD7D6BCB4D6B480
:1045C000D0D0BDF8D6C6D7AABBBB0D0A0A000000E2
:1045D0006465633A20202020B2CECAFD3130BDF898
:1045E000D6C6CFD4CABE2CBAF3B8FABFD5B8F12B11
:1045F000CAFDD7D6BCB4D6B4D0D0BDF8D6C6D7AADB
:10460000BBBB0D0A0A00000072756E74696D653AD5
:10461000312CBFAAC6F4BAAFCAFDD4CBD0D0BCC629
:10462000CAB13B302CB9D8B1D5BAAFCAFDD4CBD0C2
:10463000D0BCC6CAB13B0D0A0A000000C7EBB0B43B
:10464000D5D5B3CCD0F2B1E0D0B4B8F1CABDCAE48C
:10465000C8EBBAAFCAFDC3FBBCB0B2CECAFDB2A2B2
:10466000D2D4BBD8B3B5BCFCBDE1CAF82E0D0A004C
:104670002D2D2D2D2D2D2D2D2D2D2D2D2D2D2D2D6A
:104680002D2D2D2D2D2D2D2D2D2D414C49454E54AB
:10469000454B2D2D2D2D2D2D2D2D2D2D2D2D2D2D14
:1046A0002D2D2D2D2D2D2D2D2D2D2D200D0A0000E4
:1046B0002D2D2D2D2D2D2D2D2D2D2D2D2D2D2D2D2A
:1046C0002D2D2D2D2D2D2D2D2DBAAFCAFDC7E5B5C4
:1046D000A52D2D2D2D2D2D2D2D2D2D2D2D2D2D2D92
:1046E0002D2D2D2D2D2D2D2D2D2D2D2D200D0A0077
:1046F0009001002025730D0A000000005BA0FDF76B
:1047000033FB00200B901AE068490A6808A9097B6E
:10471000C900511801AB02AA486803A9FFF7BCFA07
:104720006248016808A8007BC0000A5803A960A07D
:10473000FDF71AFB08A8007B401CC1B20B915B4837
:10474000007D08A9097B8842DEDC5EA0FDF70CFB3A
:1047500088E05CA0FDF708FB0BAA03A92046FFF741
:1047600015FA08A8007B00281AD1694603A8FFF7AC
:10477000DAFC0B9008A9087B002804D152A000990C
:10478000FDF7F2FA0EE008A8007B042801D0022011
:104790006AE550A0FDF7E8FA01204449C87501E038
:1047A000022061E547A0FDF7DFFA5BE045A0FDF7D9
:1047B000DBFA0BAA03A92046FFF7E8F908A8007B5B
:1047C00000281AD1694603A8FFF7ADFC0B9008A991
:1047D000087B002804D144A00099FDF7C5FA0EE03B
:1047E00008A8007B042801D002203DE541A0FDF788
:1047F000BBFA00202D49C87501E0022034E531A044
:10480000FDF7B2FA2EE02FA0FDF7AEFA0BAA03A92E
:104810002046FFF7BBF908A8007B00281AD169469B
:1048200003A8FFF780FC0B9008A9087B00280FD194
:104830000098C1B21D48E0300173007B002803D00E
:1048400031A0FDF791FA07E036A0FDF78DFA03E0FD
:10485000022009E5022007E51AA0FDF785FA01E02C
:10486000012001E500BF0020FEE400002D2D2D2DCC
:104870002D2D2D2D2D2D2D2D2D2D2D2D2D2D2D2D68
:104880002D2D2D2D2DBAAFCAFD204944202D2D2DC3
:104890002D2D2D2D2D2D2D2D2D2D2D2D2D2D2D2D48
:1048A0002D2D2D2D2D2D2D2D200D0A0090010020B8
:1048B00025732069642069733A0D0A305825303811
:1048C000580D0A000D0A00004845583A305825583E
:1048D0000D0A00003136BDF8D6C6B2CECAFDCFD41F
:1048E000CABE210D0A0000004445433A256C750DEF
:1048F0000A0000003130BDF8D6C6B2CECAFDCFD412
:10490000CABE210D0A00000052756E2054696D6503
:104910002043616C63756C6174696F6E204F4E0D3E
:104920000A00000052756E2054696D652043616C69
:1049300063756C6174696F6E204F46460D0A000006
:10494000FFB581B005460E4617460024FDF76EFD03
:104950000090012109031A48FCF788F800BF0EE017
:10496000315D1848FCF750FC00BF01211548FCF7E9
:1049700057FB0028F9D01348FCF736FC641CAC4206
:10498000EEDB00240FE00498015D0E48FCF73CFCD0
:1049900000BF01210B48FCF743FB0028F9D0094870
:1049A000FCF722FC641CBC42EDD30121090304483E
:1049B000FCF75EF80098FDF735FD002005B0F0BD6E
:1049C0000004004800380040418800CADE000000B2
:1049D00000100000000000000000000000000000C7
:1049E0000000010203040005405C0000A05C04001C
:1049F000C06C0800805C0400E03F1E00E07D1E00EB
:104A00000704000908054008091040080805400887
:104A10001D0400081D0400081E265626BEBED8BC74
:104A200007A9022570889B88401008000A0016001C
:104A3000010006000100020087008D002D001A31E0
:104A400052001A339A001A351D011A376B003B3198
:104A5000BE003B335E013B3596023B370000985960
:104A60009859EA518E421E45142E0080EA51F428CE
:104A70003233E03A703DE03AC235842BC2353233EE
:104A8000C235C235AE47E03A5038A2305038000047
:104A90003F000000646563006964000072756E7415
:104AA000696D650068656C70000000006C69737466
:104AB0000000000068657800766F696420726561A7
:104AC000645F7465737428756E7369676E656420BE
:104AD000636861722061646429000000766F696414
:104AE000207465737466756E3128766F6964290069
:104AF000766F6964207465737466756E3228766F9C
:104B000069642900766F6964205365745F7374610A
:104B100072745F415228766F69642900766F696408
:104B200020556E7365745F73746172745F415228AF
:104B3000766F696429000000766F69642067657488
:104B40006C6F6374696D6528766F69642900000075
:104B5000766F6964205072745F616E63686E756D04
:104B600028766F6964290000766F69642053797331
:104B700074656D5F476574436C6F636B7328766F04
:104B800069642900766F696420444D415F746573E0
:104B90007428766F69642900766F696420756E6C7D
:104BA0006F636B666C61736828756E7369676E6599
:104BB0006420696E7420706173737764290000004B
:104BC000766F6964206765744944732875696E74EB
:104BD0003820696E6465782900000000766F69648A
:104BE00020676574535953737461747573287569BC
:104BF0006E743820696E6465782900001C4C0008CA
:104C000000000020880200008E020008E04C00082E
:104C100088020020B8130000B41D0008012B1361A6
:104C20008823CADE02790114010114130202220250
:104C30001A818A280941434B4441545258906A4191
:104C40009B822C19253112FF1AFF01794069082C2B
:104C50000203040415060708094B6CDC2B591829BC
:104C60001413904A1B08A4041AAC041A98041AB42A
:104C7000041A94041A9C041389131408684B14082A
:104C800061301B08DC081A35081AC0081351331BA1
:104C900008B82013D5121B08041013AF191B081CE9
:104CA0000813390D1B0850081BB1374C19081BDDC0
:104CB000363819281A41101AF0081ADD401A381827
:104CC00013D5051B0884081330011C20DD3F18197B
:104CD0002013913814084D408B080CBB01D90000FB
:04000005080000C12E
:00000001FF
